{
  "contractName": "PrivateReclothesShop",
  "abi": [
    {
      "inputs": [
        {
          "internalType": "address",
          "name": "_resellingCreditAddress",
          "type": "address"
        },
        {
          "internalType": "address",
          "name": "_regenerationCreditAddress",
          "type": "address"
        },
        {
          "internalType": "address",
          "name": "_reclothesShopAddress",
          "type": "address"
        },
        {
          "internalType": "uint256[]",
          "name": "_confidentialPricingList",
          "type": "uint256[]"
        }
      ],
      "stateMutability": "nonpayable",
      "type": "constructor"
    },
    {
      "anonymous": false,
      "inputs": [
        {
          "indexed": false,
          "internalType": "uint256",
          "name": "clothId",
          "type": "uint256"
        },
        {
          "indexed": false,
          "internalType": "uint256",
          "name": "rscPrice",
          "type": "uint256"
        },
        {
          "indexed": false,
          "internalType": "enum CLOTH_TYPE",
          "name": "clothType",
          "type": "uint8"
        },
        {
          "indexed": false,
          "internalType": "enum CLOTH_SIZE",
          "name": "clothSize",
          "type": "uint8"
        },
        {
          "indexed": false,
          "internalType": "enum CLOTH_STATUS",
          "name": "clothStatus",
          "type": "uint8"
        },
        {
          "indexed": false,
          "internalType": "string",
          "name": "description",
          "type": "string"
        },
        {
          "indexed": false,
          "internalType": "bytes",
          "name": "extClothDataHash",
          "type": "bytes"
        }
      ],
      "name": "SaleableClothAdded",
      "type": "event"
    },
    {
      "anonymous": false,
      "inputs": [
        {
          "indexed": false,
          "internalType": "uint256",
          "name": "clothId",
          "type": "uint256"
        },
        {
          "indexed": false,
          "internalType": "uint256",
          "name": "rscPrice",
          "type": "uint256"
        }
      ],
      "name": "SaleableClothSold",
      "type": "event"
    },
    {
      "anonymous": false,
      "inputs": [
        {
          "indexed": false,
          "internalType": "uint256",
          "name": "boxId",
          "type": "uint256"
        },
        {
          "indexed": false,
          "internalType": "uint256",
          "name": "rgcAmount",
          "type": "uint256"
        }
      ],
      "name": "SecondHandBoxEvaluated",
      "type": "event"
    },
    {
      "anonymous": false,
      "inputs": [
        {
          "indexed": false,
          "internalType": "uint256",
          "name": "boxId",
          "type": "uint256"
        },
        {
          "indexed": false,
          "internalType": "string",
          "name": "description",
          "type": "string"
        },
        {
          "indexed": false,
          "internalType": "enum CLOTH_TYPE[]",
          "name": "clothesTypes",
          "type": "uint8[]"
        },
        {
          "indexed": false,
          "internalType": "uint256[]",
          "name": "quantities",
          "type": "uint256[]"
        }
      ],
      "name": "SecondHandBoxSent",
      "type": "event"
    },
    {
      "inputs": [
        {
          "internalType": "uint256",
          "name": "",
          "type": "uint256"
        },
        {
          "internalType": "uint256",
          "name": "",
          "type": "uint256"
        }
      ],
      "name": "boxToSecondHandClothes",
      "outputs": [
        {
          "internalType": "enum CLOTH_TYPE",
          "name": "clothType",
          "type": "uint8"
        },
        {
          "internalType": "uint256",
          "name": "quantity",
          "type": "uint256"
        }
      ],
      "stateMutability": "view",
      "type": "function"
    },
    {
      "inputs": [
        {
          "internalType": "enum CLOTH_TYPE",
          "name": "",
          "type": "uint8"
        }
      ],
      "name": "confidentialClothTypeToEvaluationPrice",
      "outputs": [
        {
          "internalType": "uint256",
          "name": "",
          "type": "uint256"
        }
      ],
      "stateMutability": "view",
      "type": "function"
    },
    {
      "inputs": [
        {
          "internalType": "uint256",
          "name": "",
          "type": "uint256"
        }
      ],
      "name": "idToBox",
      "outputs": [
        {
          "internalType": "uint256",
          "name": "id",
          "type": "uint256"
        },
        {
          "internalType": "uint256",
          "name": "timestamp",
          "type": "uint256"
        },
        {
          "internalType": "uint256",
          "name": "numberOfClothTypes",
          "type": "uint256"
        },
        {
          "internalType": "uint256",
          "name": "evaluationInToken",
          "type": "uint256"
        },
        {
          "internalType": "string",
          "name": "description",
          "type": "string"
        },
        {
          "internalType": "address",
          "name": "sender",
          "type": "address"
        }
      ],
      "stateMutability": "view",
      "type": "function"
    },
    {
      "inputs": [
        {
          "internalType": "uint256",
          "name": "",
          "type": "uint256"
        }
      ],
      "name": "idToSaleableCloth",
      "outputs": [
        {
          "internalType": "uint256",
          "name": "id",
          "type": "uint256"
        },
        {
          "internalType": "uint256",
          "name": "price",
          "type": "uint256"
        },
        {
          "internalType": "enum CLOTH_TYPE",
          "name": "clothType",
          "type": "uint8"
        },
        {
          "internalType": "enum CLOTH_SIZE",
          "name": "clothSize",
          "type": "uint8"
        },
        {
          "internalType": "enum CLOTH_STATUS",
          "name": "clothStatus",
          "type": "uint8"
        },
        {
          "internalType": "string",
          "name": "description",
          "type": "string"
        },
        {
          "internalType": "address",
          "name": "buyer",
          "type": "address"
        },
        {
          "internalType": "uint256",
          "name": "timestamp",
          "type": "uint256"
        },
        {
          "internalType": "bytes",
          "name": "info",
          "type": "bytes"
        }
      ],
      "stateMutability": "view",
      "type": "function"
    },
    {
      "inputs": [],
      "name": "reclothesShopInstance",
      "outputs": [
        {
          "internalType": "contract ReclothesShop",
          "name": "",
          "type": "address"
        }
      ],
      "stateMutability": "view",
      "type": "function"
    },
    {
      "inputs": [],
      "name": "regenerationCreditInstance",
      "outputs": [
        {
          "internalType": "contract RegenerationCredit",
          "name": "",
          "type": "address"
        }
      ],
      "stateMutability": "view",
      "type": "function"
    },
    {
      "inputs": [],
      "name": "resellingCreditInstance",
      "outputs": [
        {
          "internalType": "contract ResellingCredit",
          "name": "",
          "type": "address"
        }
      ],
      "stateMutability": "view",
      "type": "function"
    },
    {
      "inputs": [
        {
          "internalType": "uint256",
          "name": "_boxId",
          "type": "uint256"
        },
        {
          "internalType": "string",
          "name": "_description",
          "type": "string"
        },
        {
          "internalType": "enum CLOTH_TYPE[]",
          "name": "_clothesTypes",
          "type": "uint8[]"
        },
        {
          "internalType": "uint256[]",
          "name": "_quantities",
          "type": "uint256[]"
        }
      ],
      "name": "sendBoxForEvaluation",
      "outputs": [],
      "stateMutability": "nonpayable",
      "type": "function"
    },
    {
      "inputs": [
        {
          "internalType": "uint256",
          "name": "_boxId",
          "type": "uint256"
        },
        {
          "internalType": "uint256",
          "name": "_extraAmountRGC",
          "type": "uint256"
        }
      ],
      "name": "evaluateBox",
      "outputs": [],
      "stateMutability": "nonpayable",
      "type": "function"
    },
    {
      "inputs": [
        {
          "internalType": "uint256",
          "name": "_clothId",
          "type": "uint256"
        },
        {
          "internalType": "uint256",
          "name": "_rscPrice",
          "type": "uint256"
        },
        {
          "internalType": "enum CLOTH_TYPE",
          "name": "_clothType",
          "type": "uint8"
        },
        {
          "internalType": "enum CLOTH_SIZE",
          "name": "_clothSize",
          "type": "uint8"
        },
        {
          "internalType": "string",
          "name": "_description",
          "type": "string"
        },
        {
          "internalType": "bytes",
          "name": "_extClothDataHash",
          "type": "bytes"
        }
      ],
      "name": "sellUpcycledCloth",
      "outputs": [],
      "stateMutability": "nonpayable",
      "type": "function"
    },
    {
      "inputs": [
        {
          "internalType": "uint256",
          "name": "_clothId",
          "type": "uint256"
        }
      ],
      "name": "buyCloth",
      "outputs": [],
      "stateMutability": "nonpayable",
      "type": "function"
    }
  ],
  "bytecode": "0x60806040523480156200001157600080fd5b506040516200285e3803806200285e833981810160405260808110156200003757600080fd5b81019080805190602001909291908051906020019092919080519060200190929190805160405193929190846401000000008211156200007657600080fd5b838201915060208201858111156200008d57600080fd5b8251866020820283011164010000000082111715620000ab57600080fd5b8083526020830192505050908051906020019060200280838360005b83811015620000e4578082015181840152602081019050620000c7565b50505050905001604052505050836000806101000a81548173ffffffffffffffffffffffffffffffffffffffff021916908373ffffffffffffffffffffffffffffffffffffffff16021790555082600160006101000a81548173ffffffffffffffffffffffffffffffffffffffff021916908373ffffffffffffffffffffffffffffffffffffffff16021790555081600260006101000a81548173ffffffffffffffffffffffffffffffffffffffff021916908373ffffffffffffffffffffffffffffffffffffffff16021790555080600081518110620001c157fe5b602002602001015160036000806005811115620001da57fe5b6005811115620001e657fe5b815260200190815260200160002081905550806001815181106200020657fe5b602002602001015160036000600160058111156200022057fe5b60058111156200022c57fe5b815260200190815260200160002081905550806002815181106200024c57fe5b602002602001015160036000600260058111156200026657fe5b60058111156200027257fe5b815260200190815260200160002081905550806003815181106200029257fe5b60200260200101516003600060036005811115620002ac57fe5b6005811115620002b857fe5b81526020019081526020016000208190555080600481518110620002d857fe5b60200260200101516003600060046005811115620002f257fe5b6005811115620002fe57fe5b815260200190815260200160002081905550806005815181106200031e57fe5b6020026020010151600360006005808111156200033757fe5b60058111156200034357fe5b815260200190815260200160002081905550505050506124f580620003696000396000f3fe608060405234801561001057600080fd5b50600436106100a95760003560e01c80637b86887d116100715780637b86887d1461029357806387804ded146102cb578063b2df01f714610446578063c36eea0914610542578063e0341afe14610576578063e3d5eabe146105aa576100a9565b80630a260f86146100ae5780630d781dc2146100f35780631e5a8ba3146101275780632b2ae4c9146101555780634a71553f146101b3575b600080fd5b6100dd600480360360208110156100c457600080fd5b81019080803560ff1690602001909291905050506106d7565b6040518082815260200191505060405180910390f35b6100fb6106ef565b604051808273ffffffffffffffffffffffffffffffffffffffff16815260200191505060405180910390f35b6101536004803603602081101561013d57600080fd5b8101908080359060200190929190505050610715565b005b61018b6004803603604081101561016b57600080fd5b810190808035906020019092919080359060200190929190505050610b05565b6040518083600581111561019b57fe5b81526020018281526020019250505060405180910390f35b6101df600480360360208110156101c957600080fd5b8101908080359060200190929190505050610b50565b60405180878152602001868152602001858152602001848152602001806020018373ffffffffffffffffffffffffffffffffffffffff168152602001828103825284818151815260200191508051906020019080838360005b83811015610253578082015181840152602081019050610238565b50505050905090810190601f1680156102805780820380516001836020036101000a031916815260200191505b5097505050505050505060405180910390f35b6102c9600480360360408110156102a957600080fd5b810190808035906020019092919080359060200190929190505050610c44565b005b6102f7600480360360208110156102e157600080fd5b81019080803590602001909291905050506110be565b604051808a815260200189815260200188600581111561031357fe5b815260200187600581111561032457fe5b815260200186600281111561033557fe5b8152602001806020018573ffffffffffffffffffffffffffffffffffffffff16815260200184815260200180602001838103835287818151815260200191508051906020019080838360005b8381101561039c578082015181840152602081019050610381565b50505050905090810190601f1680156103c95780820380516001836020036101000a031916815260200191505b50838103825284818151815260200191508051906020019080838360005b838110156104025780820151818401526020810190506103e7565b50505050905090810190601f16801561042f5780820380516001836020036101000a031916815260200191505b509b50505050505050505050505060405180910390f35b610540600480360360c081101561045c57600080fd5b810190808035906020019092919080359060200190929190803560ff169060200190929190803560ff169060200190929190803590602001906401000000008111156104a757600080fd5b8201836020820111156104b957600080fd5b803590602001918460018302840111640100000000831117156104db57600080fd5b9091929391929390803590602001906401000000008111156104fc57600080fd5b82018360208201111561050e57600080fd5b8035906020019184600183028401116401000000008311171561053057600080fd5b9091929391929390505050611283565b005b61054a611a34565b604051808273ffffffffffffffffffffffffffffffffffffffff16815260200191505060405180910390f35b61057e611a58565b604051808273ffffffffffffffffffffffffffffffffffffffff16815260200191505060405180910390f35b6106d5600480360360808110156105c057600080fd5b8101908080359060200190929190803590602001906401000000008111156105e757600080fd5b8201836020820111156105f957600080fd5b8035906020019184600183028401116401000000008311171561061b57600080fd5b90919293919293908035906020019064010000000081111561063c57600080fd5b82018360208201111561064e57600080fd5b8035906020019184602083028401116401000000008311171561067057600080fd5b90919293919293908035906020019064010000000081111561069157600080fd5b8201836020820111156106a357600080fd5b803590602001918460208302840111640100000000831117156106c557600080fd5b9091929391929390505050611a7e565b005b60036020528060005260406000206000915090505481565b600260009054906101000a900473ffffffffffffffffffffffffffffffffffffffff1681565b600260009054906101000a900473ffffffffffffffffffffffffffffffffffffffff1673ffffffffffffffffffffffffffffffffffffffff166391d14854600260009054906101000a900473ffffffffffffffffffffffffffffffffffffffff1673ffffffffffffffffffffffffffffffffffffffff1663a217fddf6040518163ffffffff1660e01b815260040160206040518083038186803b1580156107bb57600080fd5b505afa1580156107cf573d6000803e3d6000fd5b505050506040513d60208110156107e557600080fd5b8101908080519060200190929190505050336040518363ffffffff1660e01b8152600401808381526020018273ffffffffffffffffffffffffffffffffffffffff1681526020019250505060206040518083038186803b15801561084857600080fd5b505afa15801561085c573d6000803e3d6000fd5b505050506040513d602081101561087257600080fd5b81019080805190602001909291905050506108f5576040517f08c379a000000000000000000000000000000000000000000000000000000000815260040180806020018281038252600a8152602001807f4e4f542d4445414c45520000000000000000000000000000000000000000000081525060200191505060405180910390fd5b80600660008381526020019081526020016000206000015414610980576040517f08c379a000000000000000000000000000000000000000000000000000000000815260040180806020018281038252600d8152602001807f494e56414c49442d434c4f54480000000000000000000000000000000000000081525060200191505060405180910390fd5b600073ffffffffffffffffffffffffffffffffffffffff166006600083815260200190815260200160002060040160009054906101000a900473ffffffffffffffffffffffffffffffffffffffff1673ffffffffffffffffffffffffffffffffffffffff1614610a58576040517f08c379a000000000000000000000000000000000000000000000000000000000815260040180806020018281038252600c8152602001807f414c52454144592d534f4c44000000000000000000000000000000000000000081525060200191505060405180910390fd5b336006600083815260200190815260200160002060040160006101000a81548173ffffffffffffffffffffffffffffffffffffffff021916908373ffffffffffffffffffffffffffffffffffffffff1602179055507f960baee9d2afc24bf5a2863ceb9678d7a14d4fd531ed2d80afeebb7cf873f87b816006600084815260200190815260200160002060010154604051808381526020018281526020019250505060405180910390a150565b60056020528160005260406000208181548110610b1e57fe5b9060005260206000209060020201600091509150508060000160009054906101000a900460ff16908060010154905082565b6004602052806000526040600020600091509050806000015490806001015490806002015490806003015490806004018054600181600116156101000203166002900480601f016020809104026020016040519081016040528092919081815260200182805460018160011615610100020316600290048015610c145780601f10610be957610100808354040283529160200191610c14565b820191906000526020600020905b815481529060010190602001808311610bf757829003601f168201915b5050505050908060050160009054906101000a900473ffffffffffffffffffffffffffffffffffffffff16905086565b8180600460008381526020019081526020016000206000015414610cd0576040517f08c379a00000000000000000000000000000000000000000000000000000000081526004018080602001828103825260078152602001807f4e4f542d424f580000000000000000000000000000000000000000000000000081525060200191505060405180910390fd5b600260009054906101000a900473ffffffffffffffffffffffffffffffffffffffff1673ffffffffffffffffffffffffffffffffffffffff166391d14854600260009054906101000a900473ffffffffffffffffffffffffffffffffffffffff1673ffffffffffffffffffffffffffffffffffffffff1663bf3137786040518163ffffffff1660e01b815260040160206040518083038186803b158015610d7657600080fd5b505afa158015610d8a573d6000803e3d6000fd5b505050506040513d6020811015610da057600080fd5b8101908080519060200190929190505050336040518363ffffffff1660e01b8152600401808381526020018273ffffffffffffffffffffffffffffffffffffffff1681526020019250505060206040518083038186803b158015610e0357600080fd5b505afa158015610e17573d6000803e3d6000fd5b505050506040513d6020811015610e2d57600080fd5b8101908080519060200190929190505050610eb0576040517f08c379a000000000000000000000000000000000000000000000000000000000815260040180806020018281038252600c8152602001807f4e4f542d52454359434c4552000000000000000000000000000000000000000081525060200191505060405180910390fd5b6000600460008581526020019081526020016000206003015414610f3c576040517f08c379a00000000000000000000000000000000000000000000000000000000081526004018080602001828103825260118152602001807f414c52454144592d4556414c554154454400000000000000000000000000000081525060200191505060405180910390fd5b6000829050606060056000868152602001908152602001600020805480602002602001604051908101604052809291908181526020016000905b82821015610fdf57838290600052602060002090600202016040518060400160405290816000820160009054906101000a900460ff166005811115610fb757fe5b6005811115610fc257fe5b815260200160018201548152505081526020019060010190610f76565b50505050905060005b815181101561105c57818181518110610ffd57fe5b6020026020010151602001516003600084848151811061101957fe5b602002602001015160000151600581111561103057fe5b600581111561103b57fe5b81526020019081526020016000205402830192508080600101915050610fe8565b508160046000878152602001908152602001600020600301819055507f1e10c636ba54863a5d587c0cc76257de2a98ab3e497b5de08b92d7ac706d4ba28583604051808381526020018281526020019250505060405180910390a15050505050565b60066020528060005260406000206000915090508060000154908060010154908060020160009054906101000a900460ff16908060020160019054906101000a900460ff16908060020160029054906101000a900460ff1690806003018054600181600116156101000203166002900480601f0160208091040260200160405190810160405280929190818152602001828054600181600116156101000203166002900480156111af5780601f10611184576101008083540402835291602001916111af565b820191906000526020600020905b81548152906001019060200180831161119257829003601f168201915b5050505050908060040160009054906101000a900473ffffffffffffffffffffffffffffffffffffffff1690806005015490806006018054600181600116156101000203166002900480601f0160208091040260200160405190810160405280929190818152602001828054600181600116156101000203166002900480156112795780601f1061124e57610100808354040283529160200191611279565b820191906000526020600020905b81548152906001019060200180831161125c57829003601f168201915b5050505050905089565b87600081116112fa576040517f08c379a00000000000000000000000000000000000000000000000000000000081526004018080602001828103825260078152602001807f5a45524f2d49440000000000000000000000000000000000000000000000000081525060200191505060405180910390fd5b6000600660008381526020019081526020016000206000015414611386576040517f08c379a00000000000000000000000000000000000000000000000000000000081526004018080602001828103825260168152602001807f414c52454144592d53414c4541424c452d434c4f54480000000000000000000081525060200191505060405180910390fd5b600260009054906101000a900473ffffffffffffffffffffffffffffffffffffffff1673ffffffffffffffffffffffffffffffffffffffff166391d14854600260009054906101000a900473ffffffffffffffffffffffffffffffffffffffff1673ffffffffffffffffffffffffffffffffffffffff1663bf3137786040518163ffffffff1660e01b815260040160206040518083038186803b15801561142c57600080fd5b505afa158015611440573d6000803e3d6000fd5b505050506040513d602081101561145657600080fd5b8101908080519060200190929190505050336040518363ffffffff1660e01b8152600401808381526020018273ffffffffffffffffffffffffffffffffffffffff1681526020019250505060206040518083038186803b1580156114b957600080fd5b505afa1580156114cd573d6000803e3d6000fd5b505050506040513d60208110156114e357600080fd5b8101908080519060200190929190505050611566576040517f08c379a000000000000000000000000000000000000000000000000000000000815260040180806020018281038252600c8152602001807f4e4f542d52454359434c4552000000000000000000000000000000000000000081525060200191505060405180910390fd5b600088116115dc576040517f08c379a000000000000000000000000000000000000000000000000000000000815260040180806020018281038252600d8152602001807f494e56414c49442d50524943450000000000000000000000000000000000000081525060200191505060405180910390fd5b6115e46122d3565b6040518061012001604052808b81526020018a815260200189600581111561160857fe5b815260200188600581111561161957fe5b81526020016001600281111561162b57fe5b815260200187878080601f016020809104026020016040519081016040528093929190818152602001838380828437600081840152601f19601f820116905080830192505050505050508152602001600073ffffffffffffffffffffffffffffffffffffffff16815260200142815260200185858080601f016020809104026020016040519081016040528093929190818152602001838380828437600081840152601f19601f82011690508083019250505050505050815250905080600660008c8152602001908152602001600020600082015181600001556020820151816001015560408201518160020160006101000a81548160ff0219169083600581111561173357fe5b021790555060608201518160020160016101000a81548160ff0219169083600581111561175c57fe5b021790555060808201518160020160026101000a81548160ff0219169083600281111561178557fe5b021790555060a08201518160030190805190602001906117a6929190612356565b5060c08201518160040160006101000a81548173ffffffffffffffffffffffffffffffffffffffff021916908373ffffffffffffffffffffffffffffffffffffffff16021790555060e082015181600501556101008201518160060190805190602001906118159291906123d6565b509050507f56c549bff2a7d43fc1a03775a186bf3da6f95d2a5cf239061531131e390108db8a8a8a8a60018b8b8b8b604051808a815260200189815260200188600581111561186057fe5b815260200187600581111561187157fe5b815260200186600281111561188257fe5b815260200180602001806020018381038352878782818152602001925080828437600081840152601f19601f8201169050808301925050508381038252858582818152602001925080828437600081840152601f19601f8201169050808301925050509b50505050505050505050505060405180910390a16000600260009054906101000a900473ffffffffffffffffffffffffffffffffffffffff1673ffffffffffffffffffffffffffffffffffffffff16631e0c969e8a6040518263ffffffff1660e01b81526004018082600581111561195a57fe5b815260200191505060206040518083038186803b15801561197a57600080fd5b505afa15801561198e573d6000803e3d6000fd5b505050506040513d60208110156119a457600080fd5b810190808051906020019092919050505011611a28576040517f08c379a00000000000000000000000000000000000000000000000000000000081526004018080602001828103825260178152602001807f494e56454e544f52592d5a45524f2d5155414e5449545900000000000000000081525060200191505060405180910390fd5b50505050505050505050565b60008054906101000a900473ffffffffffffffffffffffffffffffffffffffff1681565b600160009054906101000a900473ffffffffffffffffffffffffffffffffffffffff1681565b600260009054906101000a900473ffffffffffffffffffffffffffffffffffffffff1673ffffffffffffffffffffffffffffffffffffffff166391d14854600260009054906101000a900473ffffffffffffffffffffffffffffffffffffffff1673ffffffffffffffffffffffffffffffffffffffff1663a217fddf6040518163ffffffff1660e01b815260040160206040518083038186803b158015611b2457600080fd5b505afa158015611b38573d6000803e3d6000fd5b505050506040513d6020811015611b4e57600080fd5b8101908080519060200190929190505050336040518363ffffffff1660e01b8152600401808381526020018273ffffffffffffffffffffffffffffffffffffffff1681526020019250505060206040518083038186803b158015611bb157600080fd5b505afa158015611bc5573d6000803e3d6000fd5b505050506040513d6020811015611bdb57600080fd5b8101908080519060200190929190505050611c5e576040517f08c379a000000000000000000000000000000000000000000000000000000000815260040180806020018281038252600a8152602001807f4e4f542d4445414c45520000000000000000000000000000000000000000000081525060200191505060405180910390fd5b8660008111611cd5576040517f08c379a00000000000000000000000000000000000000000000000000000000081526004018080602001828103825260078152602001807f5a45524f2d49440000000000000000000000000000000000000000000000000081525060200191505060405180910390fd5b6000600460008381526020019081526020016000206000015414611d61576040517f08c379a000000000000000000000000000000000000000000000000000000000815260040180806020018281038252600f8152602001807f414c52454144592d555345442d4944000000000000000000000000000000000081525060200191505060405180910390fd5b8282905085859050148015611d7a575060068585905011155b611dec576040517f08c379a000000000000000000000000000000000000000000000000000000000815260040180806020018281038252600e8152602001807f494e56414c49442d41525241595300000000000000000000000000000000000081525060200191505060405180910390fd5b611df4612456565b6040518060c001604052808a81526020014281526020018787905081526020016000815260200189898080601f016020809104026020016040519081016040528093929190818152602001838380828437600081840152601f19601f8201169050808301925050505050505081526020013373ffffffffffffffffffffffffffffffffffffffff16815250905080600460008b8152602001908152602001600020600082015181600001556020820151816001015560408201518160020155606082015181600301556080820151816004019080519060200190611ed9929190612356565b5060a08201518160050160006101000a81548173ffffffffffffffffffffffffffffffffffffffff021916908373ffffffffffffffffffffffffffffffffffffffff1602179055509050507f0ff763f44ce5c8ce1ce05ef055d4cb0b99a3bd7485afe9c7353205d29dfe2088898989898989896040518088815260200180602001806020018060200184810384528a8a82818152602001925080828437600081840152601f19601f8201169050808301925050508481038352888882818152602001925060200280828437600081840152601f19601f8201169050808301925050508481038252868682818152602001925060200280828437600081840152601f19601f8201169050808301925050509a505050505050505050505060405180910390a160005b868690508110156122c757600085858381811061201957fe5b9050602002013511612093576040517f08c379a000000000000000000000000000000000000000000000000000000000815260040180806020018281038252600d8152602001807f5a45524f2d5155414e544954590000000000000000000000000000000000000081525060200191505060405180910390fd5b84848281811061209f57fe5b90506020020135600260009054906101000a900473ffffffffffffffffffffffffffffffffffffffff1673ffffffffffffffffffffffffffffffffffffffff16631e0c969e8989858181106120f057fe5b9050602002013560058111801561210657600080fd5b506040518263ffffffff1660e01b81526004018082600581111561212657fe5b815260200191505060206040518083038186803b15801561214657600080fd5b505afa15801561215a573d6000803e3d6000fd5b505050506040513d602081101561217057600080fd5b810190808051906020019092919050505010156121f5576040517f08c379a00000000000000000000000000000000000000000000000000000000081526004018080602001828103825260188152602001807f494e56414c49442d494e56454e544f52592d414d4f554e54000000000000000081525060200191505060405180910390fd5b600560008b8152602001908152602001600020604051806040016040528089898581811061221f57fe5b9050602002013560058111801561223557600080fd5b50600581111561224157fe5b815260200187878581811061225257fe5b90506020020135815250908060018154018082558091505060019003906000526020600020906002020160009091909190915060008201518160000160006101000a81548160ff021916908360058111156122a957fe5b02179055506020820151816001015550508080600101915050612000565b50505050505050505050565b6040518061012001604052806000815260200160008152602001600060058111156122fa57fe5b81526020016000600581111561230c57fe5b81526020016000600281111561231e57fe5b815260200160608152602001600073ffffffffffffffffffffffffffffffffffffffff16815260200160008152602001606081525090565b828054600181600116156101000203166002900490600052602060002090601f016020900481019282601f1061239757805160ff19168380011785556123c5565b828001600101855582156123c5579182015b828111156123c45782518255916020019190600101906123a9565b5b5090506123d291906124a2565b5090565b828054600181600116156101000203166002900490600052602060002090601f016020900481019282601f1061241757805160ff1916838001178555612445565b82800160010185558215612445579182015b82811115612444578251825591602001919060010190612429565b5b50905061245291906124a2565b5090565b6040518060c001604052806000815260200160008152602001600081526020016000815260200160608152602001600073ffffffffffffffffffffffffffffffffffffffff1681525090565b5b808211156124bb5760008160009055506001016124a3565b509056fea26469706673582212201835c6ad824971b691f0c3110ba91bddf372ec20324237a51ab92bea2852aa4464736f6c634300060c0033",
  "immutableReferences": {},
  "source": "// SPDX-License-Identifier: MIT\npragma solidity >=0.5.0 <=0.7.0;\n\nimport \"./ReclothesShop.sol\";\n\n/// @title The Reclothes Shop core and private business logic.\n/// @author LINKS Foundation\n/// @notice This contract enables Recyclers and Reclothes Dealer to transact and cooperate on buy/sell upcycled clothes.\n/// @notice This contract guarantee the confidential transactions between Recyclers and Reclothes Dealer.\ncontract PrivateReclothesShop {\n    /** Events */\n    event SecondHandBoxSent(uint boxId, string description, CLOTH_TYPE[] clothesTypes, uint[] quantities);\n    event SecondHandBoxEvaluated(uint boxId, uint rgcAmount);\n    event SaleableClothAdded(uint clothId, uint rscPrice, CLOTH_TYPE clothType, CLOTH_SIZE clothSize, CLOTH_STATUS clothStatus, string description, bytes extClothDataHash);\n    event SaleableClothSold(uint clothId, uint rscPrice);\n\n    /** Storage */\n    \n    ResellingCredit public resellingCreditInstance; // The instance of the ResellingCredit smart contract.\n    RegenerationCredit public regenerationCreditInstance; // The instance of the RegenerationCredit smart contract.\n    ReclothesShop public reclothesShopInstance; // The instance of the ReclothesShop smart contract.\n\n    /// @dev Associate a cloth type to its evaluation price defined in RGC token amount.\n    mapping(CLOTH_TYPE => uint) public confidentialClothTypeToEvaluationPrice;\n\n    /// @dev Associate a unique id to a specific box.\n    mapping(uint => Box) public idToBox;\n\n    /// @dev Associate a unique box id to a list of second-hand clothes (i.e., contained in the box).\n    mapping(uint => SecondHandClothes[]) public boxToSecondHandClothes;\n\n    /// @dev Associate a unique saleable cloth id to its data.\n    mapping(uint => SaleableCloth) public idToSaleableCloth;\n\n    /** Modifiers */\n    /// @dev Strict condition which evaluates true only if the sender is the public Reclothes Dealer.\n    modifier onlyReclothesDealer {\n        require(reclothesShopInstance.hasRole(reclothesShopInstance.DEFAULT_ADMIN_ROLE(), msg.sender), \"NOT-DEALER\");\n        _;\n    }\n\n    /// @dev Strict condition which evaluates true only if the sender is a recycler.\n    modifier onlyRecycler {\n        require(reclothesShopInstance.hasRole(reclothesShopInstance.RECYCLER_ROLE(), msg.sender), \"NOT-RECYCLER\");\n        _;\n    }\n    \n    /// @dev Strict condition which evaluates true only if the given id is greater than zero and if is not associated to a previously created box.\n    modifier isValidBoxId(uint _id) {\n        require(_id > 0, \"ZERO-ID\");\n        require(idToBox[_id].id == 0, \"ALREADY-USED-ID\");\n        _;\n    }\n\n    /// @dev Strict condition which evaluates true only if the given id is greater than zero and if is not associated to a previously available cloth.\n    modifier isValidClothId(uint _id) {\n        require(_id > 0, \"ZERO-ID\");\n        require(idToSaleableCloth[_id].id == 0, \"ALREADY-SALEABLE-CLOTH\");\n        _;\n    }\n    \n    /// @dev Strict condition which evaluates true only if the given id is associated to a previously created box.\n    modifier isBox(uint _boxId) {\n        require(idToBox[_boxId].id == _boxId, \"NOT-BOX\");\n        _;\n    }\n\n    /** Methods */\n    \n    /// @notice Deploy a new Private Reclothes Shop smart contract for confidential interactions between Recycler and Reclothes Dealer.\n    /// @param _resellingCreditAddress The address of the ResellingCredit smart contract.\n    /// @param _regenerationCreditAddress The address of the RegenerationCredit smart contract.\n    /// @param _reclothesShopAddress The address of the ReclothesShop smart contract.\n    /// @param _confidentialPricingList A list of evaluation prices for old clothes types.\n    constructor(\n        address _resellingCreditAddress, \n        address _regenerationCreditAddress, \n        address _reclothesShopAddress,\n        uint[] memory _confidentialPricingList\n    ) public {\n        // Setup public SC instance reference.\n        resellingCreditInstance = ResellingCredit(_resellingCreditAddress);\n        regenerationCreditInstance = RegenerationCredit(_regenerationCreditAddress);\n        reclothesShopInstance = ReclothesShop(_reclothesShopAddress);\n\n        // Set the dynamic pricing list.\n        confidentialClothTypeToEvaluationPrice[CLOTH_TYPE.OTHER] = _confidentialPricingList[0];\n        confidentialClothTypeToEvaluationPrice[CLOTH_TYPE.TSHIRT] = _confidentialPricingList[1];\n        confidentialClothTypeToEvaluationPrice[CLOTH_TYPE.PANT] = _confidentialPricingList[2];\n        confidentialClothTypeToEvaluationPrice[CLOTH_TYPE.JACKET] = _confidentialPricingList[3];\n        confidentialClothTypeToEvaluationPrice[CLOTH_TYPE.DRESS] = _confidentialPricingList[4];\n        confidentialClothTypeToEvaluationPrice[CLOTH_TYPE.SHIRT] = _confidentialPricingList[5];\n    }\n    \n    /// @notice Send a box of second-hand clothes from customer to dealer.\n    /// @param _boxId The unique id which identifies the box.\n    /// @param _description A short description of the box.\n    /// @param _clothesTypes A list indicating the types of clothes inside the box.\n    /// @param _quantities A list indicating the quantities of clothes for each type inside the box.\n    function sendBoxForEvaluation(\n        uint _boxId, \n        string calldata _description,\n        CLOTH_TYPE[] calldata _clothesTypes, \n        uint[] calldata _quantities\n    ) \n    external \n    onlyReclothesDealer isValidBoxId(_boxId) {\n        // To avoid inconsistency when creating the old clothing array (nb. 6 is the number of possible cloth types).\n        require(_clothesTypes.length == _quantities.length && _clothesTypes.length <= 6, \"INVALID-ARRAYS\");\n        \n        // Create a Box object.\n        Box memory secondHandClothesBox = Box(\n            _boxId, \n            now, // nb. Using \"now\" here is safe because it's not involved in time constraints operations.\n            _clothesTypes.length,\n            0, \n            _description, \n            msg.sender\n        );\n\n        // Update storage.\n        idToBox[_boxId] = secondHandClothesBox;\n\n        // Event emit.\n        emit SecondHandBoxSent(_boxId, _description, _clothesTypes, _quantities);\n\n        // Create and bind the OldClothes[] to the newly created box.\n        for (uint i = 0; i < _clothesTypes.length; i++) {\n            require(_quantities[i] > 0, \"ZERO-QUANTITY\");\n\n            // Check if the admin has a valid amount of given clothes types inside the inventory.\n            require(reclothesShopInstance.inventory(_clothesTypes[i]) >= _quantities[i], \"INVALID-INVENTORY-AMOUNT\");\n\n            // Push the second-hand clothes to the array.\n            boxToSecondHandClothes[_boxId].push(\n                SecondHandClothes(CLOTH_TYPE(_clothesTypes[i]), _quantities[i])\n            );\n        }\n    }\n    \n    /// @notice Evaluate a box of second-hand clothes and remunerate with RGC tokens the box sender.\n    /// @dev This method needs that the recycler gives an amount of RGC tokens allowance to the contract itself.\n    /// @param _boxId The unique id which identifies the box.\n    /// @param _extraAmountRGC An extra amount of RGC tokens ad additional reward for the Reclothes Dealer.\n    function evaluateBox(uint _boxId, uint _extraAmountRGC) \n    external \n    isBox(_boxId)\n    onlyRecycler {\n        require(idToBox[_boxId].evaluationInToken == 0, \"ALREADY-EVALUATED\"); // The box must not be already evaluated.\n        \n        // Box clothes evaluation.\n        uint rgcAmount = _extraAmountRGC;\n        SecondHandClothes[] memory secondHandClothes = boxToSecondHandClothes[_boxId];\n        \n        for (uint i = 0; i < secondHandClothes.length; i++) {\n            rgcAmount += confidentialClothTypeToEvaluationPrice[secondHandClothes[i].clothType] * secondHandClothes[i].quantity;\n        }\n        \n        // Storage update.\n        idToBox[_boxId].evaluationInToken = rgcAmount;\n\n        // Event emit.\n        emit SecondHandBoxEvaluated(_boxId, rgcAmount);\n    }\n\n    /// @notice Sell a new upcycled cloth purchasable from the Reclothes Dealer.\n    /// @dev This method create a new upcycled cloth from Recycler perspective and it can be purchased from Reclothes Dealer.\n    /// @param _clothId The unique id which identifies the cloth.\n    /// @param _rscPrice The price expressed as an amount of RSC.\n    /// @param _clothType The type of the cloth to put on sale.\n    /// @param _clothSize The size of the cloth to put on sale.\n    /// @param _description A short description of the cloth.\n    /// @param _extClothDataHash A hash of the external data related to the cloth.\n    function sellUpcycledCloth(\n        uint _clothId, \n        uint _rscPrice, \n        CLOTH_TYPE _clothType, \n        CLOTH_SIZE _clothSize,\n        string calldata _description,\n        bytes calldata _extClothDataHash\n    ) \n    external\n    isValidClothId(_clothId)\n    onlyRecycler {\n        require(_rscPrice > 0, \"INVALID-PRICE\"); // Check for zero prices.\n\n        // Create a new SaleableCloth.\n        SaleableCloth memory saleableCloth = SaleableCloth(\n            _clothId, \n            _rscPrice,\n            CLOTH_TYPE(_clothType), \n            _clothSize, \n            CLOTH_STATUS.UPCYCLED, \n            _description, \n            address(0x0),\n            now,\n            _extClothDataHash\n        );\n\n        // Storage update.\n        idToSaleableCloth[_clothId] = saleableCloth;\n\n        // Event emit.\n        emit SaleableClothAdded(_clothId, _rscPrice, _clothType, _clothSize, CLOTH_STATUS.UPCYCLED, _description, _extClothDataHash);\n        \n        require(reclothesShopInstance.inventory(_clothType) > 0, \"INVENTORY-ZERO-QUANTITY\"); // Check if inside the inventory there's an available quantity of that type.\n    }\n    \n    /// @notice Buy an saleable cloth using RSC tokens.\n    /// @param _clothId The unique id which identifies the available cloth.\n    function buyCloth(uint _clothId) \n    external \n    onlyReclothesDealer {\n        require(idToSaleableCloth[_clothId].id == _clothId, \"INVALID-CLOTH\");\n        require(idToSaleableCloth[_clothId].buyer == address(0x0), \"ALREADY-SOLD\");\n        \n        // Storage update.\n        idToSaleableCloth[_clothId].buyer = msg.sender;\n        \n        // Event emit.\n        emit SaleableClothSold(_clothId, idToSaleableCloth[_clothId].price);\n    }\n}\n",
  "sourcePath": "/Users/giacomo/Documents/Work/LINKS/Coding/PoC/ReClothes-Backend/contracts/PrivateReclothesShop.sol",
  "compiler": {
    "name": "solc",
    "version": "0.6.12+commit.27d51765.Emscripten.clang"
  },
  "schemaVersion": "3.3.2",
  "updatedAt": "2020-12-11T16:31:16.661Z",
  "devdoc": {
    "author": "LINKS Foundation",
    "kind": "dev",
    "methods": {
      "buyCloth(uint256)": {
        "params": {
          "_clothId": "The unique id which identifies the available cloth."
        }
      },
      "constructor": {
        "params": {
          "_confidentialPricingList": "A list of evaluation prices for old clothes types.",
          "_reclothesShopAddress": "The address of the ReclothesShop smart contract.",
          "_regenerationCreditAddress": "The address of the RegenerationCredit smart contract.",
          "_resellingCreditAddress": "The address of the ResellingCredit smart contract."
        }
      },
      "evaluateBox(uint256,uint256)": {
        "details": "This method needs that the recycler gives an amount of RGC tokens allowance to the contract itself.",
        "params": {
          "_boxId": "The unique id which identifies the box.",
          "_extraAmountRGC": "An extra amount of RGC tokens ad additional reward for the Reclothes Dealer."
        }
      },
      "sellUpcycledCloth(uint256,uint256,uint8,uint8,string,bytes)": {
        "details": "This method create a new upcycled cloth from Recycler perspective and it can be purchased from Reclothes Dealer.",
        "params": {
          "_clothId": "The unique id which identifies the cloth.",
          "_clothSize": "The size of the cloth to put on sale.",
          "_clothType": "The type of the cloth to put on sale.",
          "_description": "A short description of the cloth.",
          "_extClothDataHash": "A hash of the external data related to the cloth.",
          "_rscPrice": "The price expressed as an amount of RSC."
        }
      },
      "sendBoxForEvaluation(uint256,string,uint8[],uint256[])": {
        "params": {
          "_boxId": "The unique id which identifies the box.",
          "_clothesTypes": "A list indicating the types of clothes inside the box.",
          "_description": "A short description of the box.",
          "_quantities": "A list indicating the quantities of clothes for each type inside the box."
        }
      }
    },
    "stateVariables": {
      "boxToSecondHandClothes": {
        "details": "Associate a unique box id to a list of second-hand clothes (i.e., contained in the box)."
      },
      "confidentialClothTypeToEvaluationPrice": {
        "details": "Associate a cloth type to its evaluation price defined in RGC token amount."
      },
      "idToBox": {
        "details": "Associate a unique id to a specific box."
      },
      "idToSaleableCloth": {
        "details": "Associate a unique saleable cloth id to its data."
      }
    },
    "title": "The Reclothes Shop core and private business logic.",
    "version": 1
  },
  "userdoc": {
    "events": {
      "SecondHandBoxSent(uint256,string,uint8[],uint256[])": {
        "notice": "Events "
      }
    },
    "kind": "user",
    "methods": {
      "buyCloth(uint256)": {
        "notice": "Buy an saleable cloth using RSC tokens."
      },
      "constructor": "Deploy a new Private Reclothes Shop smart contract for confidential interactions between Recycler and Reclothes Dealer.",
      "evaluateBox(uint256,uint256)": {
        "notice": "Evaluate a box of second-hand clothes and remunerate with RGC tokens the box sender."
      },
      "resellingCreditInstance()": {
        "notice": "Storage "
      },
      "sellUpcycledCloth(uint256,uint256,uint8,uint8,string,bytes)": {
        "notice": "Sell a new upcycled cloth purchasable from the Reclothes Dealer."
      },
      "sendBoxForEvaluation(uint256,string,uint8[],uint256[])": {
        "notice": "Send a box of second-hand clothes from customer to dealer."
      }
    },
    "notice": "This contract enables Recyclers and Reclothes Dealer to transact and cooperate on buy/sell upcycled clothes.This contract guarantee the confidential transactions between Recyclers and Reclothes Dealer.",
    "version": 1
  }
}