{
  "contractName": "ReclothesShopRoleManager",
  "abi": [
    {
      "anonymous": false,
      "inputs": [
        {
          "indexed": false,
          "internalType": "address",
          "name": "user",
          "type": "address"
        }
      ],
      "name": "CustomerRegistered",
      "type": "event"
    },
    {
      "anonymous": false,
      "inputs": [
        {
          "indexed": false,
          "internalType": "address",
          "name": "customer",
          "type": "address"
        }
      ],
      "name": "CustomerUnregistered",
      "type": "event"
    },
    {
      "anonymous": false,
      "inputs": [
        {
          "indexed": false,
          "internalType": "address",
          "name": "user",
          "type": "address"
        }
      ],
      "name": "RecyclerRoleGranted",
      "type": "event"
    },
    {
      "anonymous": false,
      "inputs": [
        {
          "indexed": false,
          "internalType": "address",
          "name": "recycler",
          "type": "address"
        }
      ],
      "name": "RecyclerRoleRevoked",
      "type": "event"
    },
    {
      "anonymous": false,
      "inputs": [
        {
          "indexed": true,
          "internalType": "bytes32",
          "name": "role",
          "type": "bytes32"
        },
        {
          "indexed": true,
          "internalType": "bytes32",
          "name": "previousAdminRole",
          "type": "bytes32"
        },
        {
          "indexed": true,
          "internalType": "bytes32",
          "name": "newAdminRole",
          "type": "bytes32"
        }
      ],
      "name": "RoleAdminChanged",
      "type": "event"
    },
    {
      "anonymous": false,
      "inputs": [
        {
          "indexed": true,
          "internalType": "bytes32",
          "name": "role",
          "type": "bytes32"
        },
        {
          "indexed": true,
          "internalType": "address",
          "name": "account",
          "type": "address"
        },
        {
          "indexed": true,
          "internalType": "address",
          "name": "sender",
          "type": "address"
        }
      ],
      "name": "RoleGranted",
      "type": "event"
    },
    {
      "anonymous": false,
      "inputs": [
        {
          "indexed": true,
          "internalType": "bytes32",
          "name": "role",
          "type": "bytes32"
        },
        {
          "indexed": true,
          "internalType": "address",
          "name": "account",
          "type": "address"
        },
        {
          "indexed": true,
          "internalType": "address",
          "name": "sender",
          "type": "address"
        }
      ],
      "name": "RoleRevoked",
      "type": "event"
    },
    {
      "inputs": [],
      "name": "DEFAULT_ADMIN_ROLE",
      "outputs": [
        {
          "internalType": "bytes32",
          "name": "",
          "type": "bytes32"
        }
      ],
      "stateMutability": "view",
      "type": "function"
    },
    {
      "inputs": [],
      "name": "RECYCLER_ROLE",
      "outputs": [
        {
          "internalType": "bytes32",
          "name": "",
          "type": "bytes32"
        }
      ],
      "stateMutability": "view",
      "type": "function"
    },
    {
      "inputs": [
        {
          "internalType": "address",
          "name": "",
          "type": "address"
        }
      ],
      "name": "customers",
      "outputs": [
        {
          "internalType": "bool",
          "name": "",
          "type": "bool"
        }
      ],
      "stateMutability": "view",
      "type": "function"
    },
    {
      "inputs": [
        {
          "internalType": "bytes32",
          "name": "role",
          "type": "bytes32"
        }
      ],
      "name": "getRoleAdmin",
      "outputs": [
        {
          "internalType": "bytes32",
          "name": "",
          "type": "bytes32"
        }
      ],
      "stateMutability": "view",
      "type": "function"
    },
    {
      "inputs": [
        {
          "internalType": "bytes32",
          "name": "role",
          "type": "bytes32"
        },
        {
          "internalType": "uint256",
          "name": "index",
          "type": "uint256"
        }
      ],
      "name": "getRoleMember",
      "outputs": [
        {
          "internalType": "address",
          "name": "",
          "type": "address"
        }
      ],
      "stateMutability": "view",
      "type": "function"
    },
    {
      "inputs": [
        {
          "internalType": "bytes32",
          "name": "role",
          "type": "bytes32"
        }
      ],
      "name": "getRoleMemberCount",
      "outputs": [
        {
          "internalType": "uint256",
          "name": "",
          "type": "uint256"
        }
      ],
      "stateMutability": "view",
      "type": "function"
    },
    {
      "inputs": [
        {
          "internalType": "bytes32",
          "name": "role",
          "type": "bytes32"
        },
        {
          "internalType": "address",
          "name": "account",
          "type": "address"
        }
      ],
      "name": "grantRole",
      "outputs": [],
      "stateMutability": "nonpayable",
      "type": "function"
    },
    {
      "inputs": [
        {
          "internalType": "bytes32",
          "name": "role",
          "type": "bytes32"
        },
        {
          "internalType": "address",
          "name": "account",
          "type": "address"
        }
      ],
      "name": "hasRole",
      "outputs": [
        {
          "internalType": "bool",
          "name": "",
          "type": "bool"
        }
      ],
      "stateMutability": "view",
      "type": "function"
    },
    {
      "inputs": [
        {
          "internalType": "bytes32",
          "name": "role",
          "type": "bytes32"
        },
        {
          "internalType": "address",
          "name": "account",
          "type": "address"
        }
      ],
      "name": "renounceRole",
      "outputs": [],
      "stateMutability": "nonpayable",
      "type": "function"
    },
    {
      "inputs": [
        {
          "internalType": "bytes32",
          "name": "role",
          "type": "bytes32"
        },
        {
          "internalType": "address",
          "name": "account",
          "type": "address"
        }
      ],
      "name": "revokeRole",
      "outputs": [],
      "stateMutability": "nonpayable",
      "type": "function"
    },
    {
      "inputs": [
        {
          "internalType": "address",
          "name": "_userAccount",
          "type": "address"
        }
      ],
      "name": "grantRecyclerRole",
      "outputs": [],
      "stateMutability": "nonpayable",
      "type": "function"
    },
    {
      "inputs": [],
      "name": "registerAsCustomer",
      "outputs": [],
      "stateMutability": "nonpayable",
      "type": "function"
    },
    {
      "inputs": [
        {
          "internalType": "address",
          "name": "_recycler",
          "type": "address"
        }
      ],
      "name": "revokeRecyclerRole",
      "outputs": [],
      "stateMutability": "nonpayable",
      "type": "function"
    },
    {
      "inputs": [],
      "name": "renounceToCustomerRole",
      "outputs": [],
      "stateMutability": "nonpayable",
      "type": "function"
    }
  ],
  "bytecode": "0x608060405234801561001057600080fd5b50611489806100206000396000f3fe608060405234801561001057600080fd5b50600436106100ea5760003560e01c80639fbd69f61161008c578063bf31377811610066578063bf31377814610363578063ca15c87314610381578063d547741f146103c3578063ee82f0f014610411576100ea565b80639fbd69f6146102f7578063a04bd58d1461033b578063a217fddf14610345576100ea565b806336568abe116100c857806336568abe146101d957806338461636146102275780639010d07c1461023157806391d1485414610293576100ea565b8063248a9ca3146100ef5780632f2ff15d14610131578063336989ae1461017f575b600080fd5b61011b6004803603602081101561010557600080fd5b8101908080359060200190929190505050610455565b6040518082815260200191505060405180910390f35b61017d6004803603604081101561014757600080fd5b8101908080359060200190929190803573ffffffffffffffffffffffffffffffffffffffff169060200190929190505050610474565b005b6101c16004803603602081101561019557600080fd5b81019080803573ffffffffffffffffffffffffffffffffffffffff1690602001909291905050506104fd565b60405180821515815260200191505060405180910390f35b610225600480360360408110156101ef57600080fd5b8101908080359060200190929190803573ffffffffffffffffffffffffffffffffffffffff16906020019092919050505061051d565b005b61022f6105b6565b005b6102676004803603604081101561024757600080fd5b81019080803590602001909291908035906020019092919050505061068e565b604051808273ffffffffffffffffffffffffffffffffffffffff16815260200191505060405180910390f35b6102df600480360360408110156102a957600080fd5b8101908080359060200190929190803573ffffffffffffffffffffffffffffffffffffffff1690602001909291905050506106bf565b60405180821515815260200191505060405180910390f35b6103396004803603602081101561030d57600080fd5b81019080803573ffffffffffffffffffffffffffffffffffffffff1690602001909291905050506106f0565b005b610343610782565b005b61034d610794565b6040518082815260200191505060405180910390f35b61036b61079b565b6040518082815260200191505060405180910390f35b6103ad6004803603602081101561039757600080fd5b81019080803590602001909291905050506107bf565b6040518082815260200191505060405180910390f35b61040f600480360360408110156103d957600080fd5b8101908080359060200190929190803573ffffffffffffffffffffffffffffffffffffffff1690602001909291905050506107e5565b005b6104536004803603602081101561042757600080fd5b81019080803573ffffffffffffffffffffffffffffffffffffffff16906020019092919050505061086e565b005b6000806000838152602001908152602001600020600201549050919050565b61049a60008084815260200190815260200160002060020154610495610900565b6106bf565b6104ef576040517f08c379a000000000000000000000000000000000000000000000000000000000815260040180806020018281038252602f8152602001806113c6602f913960400191505060405180910390fd5b6104f98282610908565b5050565b60016020528060005260406000206000915054906101000a900460ff1681565b610525610900565b73ffffffffffffffffffffffffffffffffffffffff168173ffffffffffffffffffffffffffffffffffffffff16146105a8576040517f08c379a000000000000000000000000000000000000000000000000000000000815260040180806020018281038252602f815260200180611425602f913960400191505060405180910390fd5b6105b2828261099b565b5050565b600160006105c2610900565b73ffffffffffffffffffffffffffffffffffffffff1673ffffffffffffffffffffffffffffffffffffffff16815260200190815260200160002060009054906101000a900460ff1661067c576040517f08c379a000000000000000000000000000000000000000000000000000000000815260040180806020018281038252600c8152602001807f4e4f542d435553544f4d4552000000000000000000000000000000000000000081525060200191505060405180910390fd5b61068c610687610900565b610a2e565b565b60006106b782600080868152602001908152602001600020600001610ad690919063ffffffff16565b905092915050565b60006106e882600080868152602001908152602001600020600001610af090919063ffffffff16565b905092915050565b6107046000801b6106ff610900565b6106bf565b610776576040517f08c379a000000000000000000000000000000000000000000000000000000000815260040180806020018281038252600a8152602001807f4e4f542d4445414c45520000000000000000000000000000000000000000000081525060200191505060405180910390fd5b61077f81610b20565b50565b61079261078d610900565b610d7d565b565b6000801b81565b7f11d2c681bc9c10ed61f9a422c0dbaaddc4054ce58ec726aca73e7e4d31bcd15481565b60006107de600080848152602001908152602001600020600001611007565b9050919050565b61080b60008084815260200190815260200160002060020154610806610900565b6106bf565b610860576040517f08c379a00000000000000000000000000000000000000000000000000000000081526004018080602001828103825260308152602001806113f56030913960400191505060405180910390fd5b61086a828261099b565b5050565b6108826000801b61087d610900565b6106bf565b6108f4576040517f08c379a000000000000000000000000000000000000000000000000000000000815260040180806020018281038252600a8152602001807f4e4f542d4445414c45520000000000000000000000000000000000000000000081525060200191505060405180910390fd5b6108fd8161101c565b50565b600033905090565b61092f8160008085815260200190815260200160002060000161113490919063ffffffff16565b156109975761093c610900565b73ffffffffffffffffffffffffffffffffffffffff168173ffffffffffffffffffffffffffffffffffffffff16837f2f8788117e7eff1d82e926ec794901d17c78024a50270940304540a733656f0d60405160405180910390a45b5050565b6109c28160008085815260200190815260200160002060000161116490919063ffffffff16565b15610a2a576109cf610900565b73ffffffffffffffffffffffffffffffffffffffff168173ffffffffffffffffffffffffffffffffffffffff16837ff6391f5c32d9c69d2a47ea670b442974b53935d1edc7fd64eb21e047a839171b60405160405180910390a45b5050565b6000600160008373ffffffffffffffffffffffffffffffffffffffff1673ffffffffffffffffffffffffffffffffffffffff16815260200190815260200160002060006101000a81548160ff0219169083151502179055507f59eeda9684ba893a6f6cc0d5124d08396a1d9317c5590541c3712ac71702932581604051808273ffffffffffffffffffffffffffffffffffffffff16815260200191505060405180910390a150565b6000610ae58360000183611194565b60001c905092915050565b6000610b18836000018373ffffffffffffffffffffffffffffffffffffffff1660001b611217565b905092915050565b80610b2e6000801b826106bf565b15610ba1576040517f08c379a000000000000000000000000000000000000000000000000000000000815260040180806020018281038252600e8152602001807f414c52454144592d4445414c455200000000000000000000000000000000000081525060200191505060405180910390fd5b81610bcc7f11d2c681bc9c10ed61f9a422c0dbaaddc4054ce58ec726aca73e7e4d31bcd154826106bf565b15610c3f576040517f08c379a00000000000000000000000000000000000000000000000000000000081526004018080602001828103825260108152602001807f414c52454144592d52454359434c45520000000000000000000000000000000081525060200191505060405180910390fd5b82600160008273ffffffffffffffffffffffffffffffffffffffff1673ffffffffffffffffffffffffffffffffffffffff16815260200190815260200160002060009054906101000a900460ff1615610d00576040517f08c379a00000000000000000000000000000000000000000000000000000000081526004018080602001828103825260108152602001807f414c52454144592d435553544f4d45520000000000000000000000000000000081525060200191505060405180910390fd5b610d2a7f11d2c681bc9c10ed61f9a422c0dbaaddc4054ce58ec726aca73e7e4d31bcd15485610474565b7f58c9dc8bea7955e04176980b081ee402d8508bc504041f76ffe11702db5610d484604051808273ffffffffffffffffffffffffffffffffffffffff16815260200191505060405180910390a150505050565b80610d8b6000801b826106bf565b15610dfe576040517f08c379a000000000000000000000000000000000000000000000000000000000815260040180806020018281038252600e8152602001807f414c52454144592d4445414c455200000000000000000000000000000000000081525060200191505060405180910390fd5b81610e297f11d2c681bc9c10ed61f9a422c0dbaaddc4054ce58ec726aca73e7e4d31bcd154826106bf565b15610e9c576040517f08c379a00000000000000000000000000000000000000000000000000000000081526004018080602001828103825260108152602001807f414c52454144592d52454359434c45520000000000000000000000000000000081525060200191505060405180910390fd5b82600160008273ffffffffffffffffffffffffffffffffffffffff1673ffffffffffffffffffffffffffffffffffffffff16815260200190815260200160002060009054906101000a900460ff1615610f5d576040517f08c379a00000000000000000000000000000000000000000000000000000000081526004018080602001828103825260108152602001807f414c52454144592d435553544f4d45520000000000000000000000000000000081525060200191505060405180910390fd5b60018060008673ffffffffffffffffffffffffffffffffffffffff1673ffffffffffffffffffffffffffffffffffffffff16815260200190815260200160002060006101000a81548160ff0219169083151502179055507f155e8619f4d23b96769599cb9af87da3e06a360082869c18578011da9a06e67084604051808273ffffffffffffffffffffffffffffffffffffffff16815260200191505060405180910390a150505050565b60006110158260000161123a565b9050919050565b806110477f11d2c681bc9c10ed61f9a422c0dbaaddc4054ce58ec726aca73e7e4d31bcd154826106bf565b6110b9576040517f08c379a000000000000000000000000000000000000000000000000000000000815260040180806020018281038252600c8152602001807f4e4f542d52454359434c4552000000000000000000000000000000000000000081525060200191505060405180910390fd5b6110e37f11d2c681bc9c10ed61f9a422c0dbaaddc4054ce58ec726aca73e7e4d31bcd154836107e5565b7f219dad0e1408532619e76e4d7af7239a896c4ec644eea0ff3355c91491e34a6c82604051808273ffffffffffffffffffffffffffffffffffffffff16815260200191505060405180910390a15050565b600061115c836000018373ffffffffffffffffffffffffffffffffffffffff1660001b61124b565b905092915050565b600061118c836000018373ffffffffffffffffffffffffffffffffffffffff1660001b6112bb565b905092915050565b6000818360000180549050116111f5576040517f08c379a00000000000000000000000000000000000000000000000000000000081526004018080602001828103825260228152602001806113a46022913960400191505060405180910390fd5b82600001828154811061120457fe5b9060005260206000200154905092915050565b600080836001016000848152602001908152602001600020541415905092915050565b600081600001805490509050919050565b60006112578383611217565b6112b05782600001829080600181540180825580915050600190039060005260206000200160009091909190915055826000018054905083600101600084815260200190815260200160002081905550600190506112b5565b600090505b92915050565b60008083600101600084815260200190815260200160002054905060008114611397576000600182039050600060018660000180549050039050600086600001828154811061130657fe5b906000526020600020015490508087600001848154811061132357fe5b906000526020600020018190555060018301876001016000838152602001908152602001600020819055508660000180548061135b57fe5b6001900381819060005260206000200160009055905586600101600087815260200190815260200160002060009055600194505050505061139d565b60009150505b9291505056fe456e756d657261626c655365743a20696e646578206f7574206f6620626f756e6473416363657373436f6e74726f6c3a2073656e646572206d75737420626520616e2061646d696e20746f206772616e74416363657373436f6e74726f6c3a2073656e646572206d75737420626520616e2061646d696e20746f207265766f6b65416363657373436f6e74726f6c3a2063616e206f6e6c792072656e6f756e636520726f6c657320666f722073656c66a264697066735822122091af091aafbb4b7ea567667a071e7b7f4864399f11518fff506ae06cccdd626964736f6c634300060c0033",
  "immutableReferences": {},
  "source": "// SPDX-License-Identifier: MIT\npragma solidity >=0.5.0 <=0.7.0;\n\nimport \"./AccessControl.sol\";\n\n/// @title Allows the dynamic management for each role used in the Reclothes Shop smart contract business logic.\n/// @author LINKS Foundation\n/// @notice This contract extends OZ AccessControl giving a DEFAULT_ADMIN_ROLE to Reclothes Dealer to handle Recycler role. The Customer role is managed independently for each user.\n/// @notice The Customer role is assigned to an external user that can send boxes for evaluation and buy new clothes.\n/// @notice The Recycler role is assigned to an internal partner/industry which will confidentially transact with the Reclothes Dealer on boxes of upcycled clothes.\ncontract ReclothesShopRoleManager is AccessControl {\n    /** Events */\n    \n    event RecyclerRoleGranted(address user);\n    event CustomerRegistered(address user);\n    event RecyclerRoleRevoked(address recycler);\n    event CustomerUnregistered(address customer);\n\n    /** Storage */\n    \n    bytes32 public constant RECYCLER_ROLE = keccak256(\"RECYCLER_ROLE\"); /// @dev The hash which identifies the Recycler role.\n\n    /// @dev Associate a true value to an EOA when belongs to a customer; otherwise false.\n    mapping(address => bool) public customers;\n    \n    /** Modifiers */\n    \n    /// @dev Strict condition which evaluates true only if the sender has the DEFAULT_ADMIN_ROLE.\n    modifier onlyReclothesDealer {\n        require(hasRole(DEFAULT_ADMIN_ROLE, _msgSender()), \"NOT-DEALER\");\n        _;\n    }\n    \n    /// @dev Strict condition which evaluates true only if the sender has the RECYCLER_ROLE.\n    modifier onlyRecycler {\n        require(hasRole(RECYCLER_ROLE, _msgSender()), \"NOT-RECYCLER\");\n        _;\n    }\n        \n    /// @dev Strict condition which evaluates true only if the sender has the CUSTOMER_ROLE.\n    modifier onlyCustomer {\n        require(customers[_msgSender()], \"NOT-CUSTOMER\");\n        _;\n    }\n    \n    /// @dev Strict condition which evaluates true only if the given account is associated to the DEFAULT_ADMIN_ROLE.\n    modifier isReclothesDealer(address _account) {\n        require(hasRole(DEFAULT_ADMIN_ROLE, _account), \"NOT-DEALER\");\n        _;\n    }\n    \n    /// @dev Strict condition which evaluates true only if the given account is associated to the RECYCLER_ROLE.\n    modifier isRecycler(address _account) {\n        require(hasRole(RECYCLER_ROLE, _account), \"NOT-RECYCLER\");\n        _;\n    }\n    \n    /// @dev Strict condition which evaluates true only if the given account is associated to the CUSTOMER_ROLE.\n    modifier isCustomer(address _account) {\n        require(customers[_account], \"NOT-CUSTOMER\");\n        _;\n    }\n    \n    /// @dev Strict condition which evaluates true only if the given account isn't associated to the DEFAULT_ADMIN_ROLE.\n    modifier isNotReclothesDealer(address _account) {\n        require(!hasRole(DEFAULT_ADMIN_ROLE, _account), \"ALREADY-DEALER\");\n        _;\n    }\n    \n    /// @dev Strict condition which evaluates true only if the given account isn't associated to the RECYCLER_ROLE.\n    modifier isNotRecycler(address _account) {\n        require(!hasRole(RECYCLER_ROLE, _account), \"ALREADY-RECYCLER\");\n        _;\n    }\n    \n    /// @dev Strict condition which evaluates true only if the given account isn't associated to the CUSTOMER_ROLE.\n    modifier isNotCustomer(address _account) {\n        require(!customers[_account], \"ALREADY-CUSTOMER\");\n        _;\n    }\n    \n    /** Methods */\n    \n    /// @notice Register a new Recycler in to the system.\n    /// @param _userAccount The EOA of the user that must be added as recycler.\n    function grantRecyclerRole(address _userAccount) \n    external \n    onlyReclothesDealer {\n        _grantRecyclerRole(_userAccount);\n    }\n    \n    /// @notice Assign the Customer role to the sender\n    function registerAsCustomer() \n    external \n    {\n        _registerAsCustomer(_msgSender());\n    }\n    \n    /// @notice Remove a Recycler user from the system.\n    /// @param _recycler The EOA of the recycler that must be removed.\n    function revokeRecyclerRole(address _recycler) \n    external \n    onlyReclothesDealer {\n        _revokeRecyclerRole(_recycler);\n    }\n \n    /// @notice Removes the Customer role from the sender.\n    function renounceToCustomerRole() \n    external \n    onlyCustomer {\n        _renounceToCustomerRole(_msgSender());\n    }\n    \n    function _grantRecyclerRole(address _userAccount) \n    internal \n    isNotReclothesDealer(_userAccount) isNotRecycler(_userAccount) isNotCustomer(_userAccount) {\n        // Grant the RECYCLER_ROLE to the user account.\n        grantRole(RECYCLER_ROLE, _userAccount);\n        \n        // Event emit.\n        emit RecyclerRoleGranted(_userAccount);\n    }\n\n    function _registerAsCustomer(address _userAccount) \n    internal \n    isNotReclothesDealer(_userAccount) isNotRecycler(_userAccount) isNotCustomer(_userAccount) {\n        // Storage update.\n       customers[_userAccount] = true;\n        \n        // Event emit.\n        emit CustomerRegistered(_userAccount);\n    }\n    \n    function _revokeRecyclerRole(address _recycler) \n    internal \n    isRecycler(_recycler) {\n        // Revoke the RECYCLER_ROLE from the recycler account.\n        revokeRole(RECYCLER_ROLE, _recycler);\n        \n        // Event emit.\n        emit RecyclerRoleRevoked(_recycler);\n    }\n    \n    function _renounceToCustomerRole(address _customer) \n    internal \n    {\n        // Storage update.\n       customers[_customer] = false;\n        \n        // Event emit.\n        emit CustomerUnregistered(_customer);\n    }\n}",
  "sourcePath": "/Users/giacomo/Documents/Work/LINKS/Coding/PoC/ReClothes-Backend/contracts/ReclothesShopRoleManager.sol",
  "compiler": {
    "name": "solc",
    "version": "0.6.12+commit.27d51765.Emscripten.clang"
  },
  "schemaVersion": "3.3.2",
  "updatedAt": "2020-12-11T16:31:16.682Z",
  "devdoc": {
    "author": "LINKS Foundation",
    "kind": "dev",
    "methods": {
      "getRoleAdmin(bytes32)": {
        "details": "Returns the admin role that controls `role`. See {grantRole} and {revokeRole}. To change a role's admin, use {_setRoleAdmin}."
      },
      "getRoleMember(bytes32,uint256)": {
        "details": "Returns one of the accounts that have `role`. `index` must be a value between 0 and {getRoleMemberCount}, non-inclusive. Role bearers are not sorted in any particular way, and their ordering may change at any point. WARNING: When using {getRoleMember} and {getRoleMemberCount}, make sure you perform all queries on the same block. See the following https://forum.openzeppelin.com/t/iterating-over-elements-on-enumerableset-in-openzeppelin-contracts/2296[forum post] for more information."
      },
      "getRoleMemberCount(bytes32)": {
        "details": "Returns the number of accounts that have `role`. Can be used together with {getRoleMember} to enumerate all bearers of a role."
      },
      "grantRecyclerRole(address)": {
        "params": {
          "_userAccount": "The EOA of the user that must be added as recycler."
        }
      },
      "grantRole(bytes32,address)": {
        "details": "Grants `role` to `account`. If `account` had not been already granted `role`, emits a {RoleGranted} event. Requirements: - the caller must have ``role``'s admin role."
      },
      "hasRole(bytes32,address)": {
        "details": "Returns `true` if `account` has been granted `role`."
      },
      "renounceRole(bytes32,address)": {
        "details": "Revokes `role` from the calling account. Roles are often managed via {grantRole} and {revokeRole}: this function's purpose is to provide a mechanism for accounts to lose their privileges if they are compromised (such as when a trusted device is misplaced). If the calling account had been granted `role`, emits a {RoleRevoked} event. Requirements: - the caller must be `account`."
      },
      "revokeRecyclerRole(address)": {
        "params": {
          "_recycler": "The EOA of the recycler that must be removed."
        }
      },
      "revokeRole(bytes32,address)": {
        "details": "Revokes `role` from `account`. If `account` had been granted `role`, emits a {RoleRevoked} event. Requirements: - the caller must have ``role``'s admin role."
      }
    },
    "stateVariables": {
      "customers": {
        "details": "Associate a true value to an EOA when belongs to a customer; otherwise false."
      }
    },
    "title": "Allows the dynamic management for each role used in the Reclothes Shop smart contract business logic.",
    "version": 1
  },
  "userdoc": {
    "events": {
      "RecyclerRoleGranted(address)": {
        "notice": "Events "
      }
    },
    "kind": "user",
    "methods": {
      "RECYCLER_ROLE()": {
        "notice": "Storage "
      },
      "grantRecyclerRole(address)": {
        "notice": "Register a new Recycler in to the system."
      },
      "registerAsCustomer()": {
        "notice": "Assign the Customer role to the sender"
      },
      "renounceToCustomerRole()": {
        "notice": "Removes the Customer role from the sender."
      },
      "revokeRecyclerRole(address)": {
        "notice": "Remove a Recycler user from the system."
      }
    },
    "notice": "This contract extends OZ AccessControl giving a DEFAULT_ADMIN_ROLE to Reclothes Dealer to handle Recycler role. The Customer role is managed independently for each user.The Customer role is assigned to an external user that can send boxes for evaluation and buy new clothes.The Recycler role is assigned to an internal partner/industry which will confidentially transact with the Reclothes Dealer on boxes of upcycled clothes.",
    "version": 1
  }
}