{
  "contractName": "ReclothesShop",
  "abi": [
    {
      "inputs": [
        {
          "internalType": "address",
          "name": "_resellingCreditAddress",
          "type": "address"
        },
        {
          "internalType": "address",
          "name": "_regenerationCreditAddress",
          "type": "address"
        }
      ],
      "stateMutability": "nonpayable",
      "type": "constructor"
    },
    {
      "anonymous": false,
      "inputs": [
        {
          "indexed": false,
          "internalType": "enum CLOTH_TYPE[]",
          "name": "clothesTypes",
          "type": "uint8[]"
        },
        {
          "indexed": false,
          "internalType": "uint256[]",
          "name": "quantities",
          "type": "uint256[]"
        },
        {
          "indexed": false,
          "internalType": "string",
          "name": "confidentialTxHash",
          "type": "string"
        }
      ],
      "name": "ConfidentialBoxSent",
      "type": "event"
    },
    {
      "anonymous": false,
      "inputs": [
        {
          "indexed": false,
          "internalType": "address",
          "name": "sender",
          "type": "address"
        },
        {
          "indexed": false,
          "internalType": "address",
          "name": "receiver",
          "type": "address"
        },
        {
          "indexed": false,
          "internalType": "uint256",
          "name": "amount",
          "type": "uint256"
        },
        {
          "indexed": false,
          "internalType": "string",
          "name": "confidentialTxHash",
          "type": "string"
        }
      ],
      "name": "ConfidentialTokenTransfer",
      "type": "event"
    },
    {
      "anonymous": false,
      "inputs": [
        {
          "indexed": false,
          "internalType": "uint256",
          "name": "clothId",
          "type": "uint256"
        },
        {
          "indexed": false,
          "internalType": "string",
          "name": "confidentialTxHash",
          "type": "string"
        }
      ],
      "name": "ConfidentialUpcycledClothOnSale",
      "type": "event"
    },
    {
      "anonymous": false,
      "inputs": [
        {
          "indexed": false,
          "internalType": "address",
          "name": "user",
          "type": "address"
        }
      ],
      "name": "CustomerRegistered",
      "type": "event"
    },
    {
      "anonymous": false,
      "inputs": [
        {
          "indexed": false,
          "internalType": "address",
          "name": "customer",
          "type": "address"
        }
      ],
      "name": "CustomerUnregistered",
      "type": "event"
    },
    {
      "anonymous": false,
      "inputs": [
        {
          "indexed": false,
          "internalType": "address",
          "name": "user",
          "type": "address"
        }
      ],
      "name": "RecyclerRoleGranted",
      "type": "event"
    },
    {
      "anonymous": false,
      "inputs": [
        {
          "indexed": false,
          "internalType": "address",
          "name": "recycler",
          "type": "address"
        }
      ],
      "name": "RecyclerRoleRevoked",
      "type": "event"
    },
    {
      "anonymous": false,
      "inputs": [
        {
          "indexed": true,
          "internalType": "bytes32",
          "name": "role",
          "type": "bytes32"
        },
        {
          "indexed": true,
          "internalType": "bytes32",
          "name": "previousAdminRole",
          "type": "bytes32"
        },
        {
          "indexed": true,
          "internalType": "bytes32",
          "name": "newAdminRole",
          "type": "bytes32"
        }
      ],
      "name": "RoleAdminChanged",
      "type": "event"
    },
    {
      "anonymous": false,
      "inputs": [
        {
          "indexed": true,
          "internalType": "bytes32",
          "name": "role",
          "type": "bytes32"
        },
        {
          "indexed": true,
          "internalType": "address",
          "name": "account",
          "type": "address"
        },
        {
          "indexed": true,
          "internalType": "address",
          "name": "sender",
          "type": "address"
        }
      ],
      "name": "RoleGranted",
      "type": "event"
    },
    {
      "anonymous": false,
      "inputs": [
        {
          "indexed": true,
          "internalType": "bytes32",
          "name": "role",
          "type": "bytes32"
        },
        {
          "indexed": true,
          "internalType": "address",
          "name": "account",
          "type": "address"
        },
        {
          "indexed": true,
          "internalType": "address",
          "name": "sender",
          "type": "address"
        }
      ],
      "name": "RoleRevoked",
      "type": "event"
    },
    {
      "anonymous": false,
      "inputs": [
        {
          "indexed": false,
          "internalType": "uint256",
          "name": "clothId",
          "type": "uint256"
        },
        {
          "indexed": false,
          "internalType": "uint256",
          "name": "rscPrice",
          "type": "uint256"
        },
        {
          "indexed": false,
          "internalType": "enum CLOTH_TYPE",
          "name": "clothType",
          "type": "uint8"
        },
        {
          "indexed": false,
          "internalType": "enum CLOTH_SIZE",
          "name": "clothSize",
          "type": "uint8"
        },
        {
          "indexed": false,
          "internalType": "enum CLOTH_STATUS",
          "name": "clothStatus",
          "type": "uint8"
        },
        {
          "indexed": false,
          "internalType": "string",
          "name": "description",
          "type": "string"
        },
        {
          "indexed": false,
          "internalType": "bytes",
          "name": "extClothDataHash",
          "type": "bytes"
        }
      ],
      "name": "SaleableClothAdded",
      "type": "event"
    },
    {
      "anonymous": false,
      "inputs": [
        {
          "indexed": false,
          "internalType": "uint256",
          "name": "clothId",
          "type": "uint256"
        },
        {
          "indexed": false,
          "internalType": "uint256",
          "name": "rscPrice",
          "type": "uint256"
        }
      ],
      "name": "SaleableClothSold",
      "type": "event"
    },
    {
      "anonymous": false,
      "inputs": [
        {
          "indexed": false,
          "internalType": "uint256",
          "name": "boxId",
          "type": "uint256"
        },
        {
          "indexed": false,
          "internalType": "uint256",
          "name": "rscAmount",
          "type": "uint256"
        }
      ],
      "name": "SecondHandBoxEvaluated",
      "type": "event"
    },
    {
      "anonymous": false,
      "inputs": [
        {
          "indexed": false,
          "internalType": "uint256",
          "name": "boxId",
          "type": "uint256"
        },
        {
          "indexed": false,
          "internalType": "string",
          "name": "description",
          "type": "string"
        },
        {
          "indexed": false,
          "internalType": "enum CLOTH_TYPE[]",
          "name": "clothesTypes",
          "type": "uint8[]"
        },
        {
          "indexed": false,
          "internalType": "uint256[]",
          "name": "quantities",
          "type": "uint256[]"
        }
      ],
      "name": "SecondHandBoxSent",
      "type": "event"
    },
    {
      "anonymous": false,
      "inputs": [
        {
          "indexed": false,
          "internalType": "enum CLOTH_TYPE",
          "name": "clothType",
          "type": "uint8"
        },
        {
          "indexed": false,
          "internalType": "uint256",
          "name": "quantity",
          "type": "uint256"
        }
      ],
      "name": "SecondHandClothesStored",
      "type": "event"
    },
    {
      "inputs": [],
      "name": "DEFAULT_ADMIN_ROLE",
      "outputs": [
        {
          "internalType": "bytes32",
          "name": "",
          "type": "bytes32"
        }
      ],
      "stateMutability": "view",
      "type": "function"
    },
    {
      "inputs": [],
      "name": "RECYCLER_ROLE",
      "outputs": [
        {
          "internalType": "bytes32",
          "name": "",
          "type": "bytes32"
        }
      ],
      "stateMutability": "view",
      "type": "function"
    },
    {
      "inputs": [
        {
          "internalType": "uint256",
          "name": "",
          "type": "uint256"
        },
        {
          "internalType": "uint256",
          "name": "",
          "type": "uint256"
        }
      ],
      "name": "boxToSecondHandClothes",
      "outputs": [
        {
          "internalType": "enum CLOTH_TYPE",
          "name": "clothType",
          "type": "uint8"
        },
        {
          "internalType": "uint256",
          "name": "quantity",
          "type": "uint256"
        }
      ],
      "stateMutability": "view",
      "type": "function"
    },
    {
      "inputs": [
        {
          "internalType": "enum CLOTH_TYPE",
          "name": "",
          "type": "uint8"
        }
      ],
      "name": "clothTypeToEvaluationPrice",
      "outputs": [
        {
          "internalType": "uint256",
          "name": "",
          "type": "uint256"
        }
      ],
      "stateMutability": "view",
      "type": "function"
    },
    {
      "inputs": [
        {
          "internalType": "address",
          "name": "",
          "type": "address"
        },
        {
          "internalType": "uint256",
          "name": "",
          "type": "uint256"
        }
      ],
      "name": "customerToBoxesIds",
      "outputs": [
        {
          "internalType": "uint256",
          "name": "",
          "type": "uint256"
        }
      ],
      "stateMutability": "view",
      "type": "function"
    },
    {
      "inputs": [
        {
          "internalType": "address",
          "name": "",
          "type": "address"
        },
        {
          "internalType": "uint256",
          "name": "",
          "type": "uint256"
        }
      ],
      "name": "customerToPurchasedClothesIds",
      "outputs": [
        {
          "internalType": "uint256",
          "name": "",
          "type": "uint256"
        }
      ],
      "stateMutability": "view",
      "type": "function"
    },
    {
      "inputs": [
        {
          "internalType": "address",
          "name": "",
          "type": "address"
        }
      ],
      "name": "customers",
      "outputs": [
        {
          "internalType": "bool",
          "name": "",
          "type": "bool"
        }
      ],
      "stateMutability": "view",
      "type": "function"
    },
    {
      "inputs": [
        {
          "internalType": "bytes32",
          "name": "role",
          "type": "bytes32"
        }
      ],
      "name": "getRoleAdmin",
      "outputs": [
        {
          "internalType": "bytes32",
          "name": "",
          "type": "bytes32"
        }
      ],
      "stateMutability": "view",
      "type": "function"
    },
    {
      "inputs": [
        {
          "internalType": "bytes32",
          "name": "role",
          "type": "bytes32"
        },
        {
          "internalType": "uint256",
          "name": "index",
          "type": "uint256"
        }
      ],
      "name": "getRoleMember",
      "outputs": [
        {
          "internalType": "address",
          "name": "",
          "type": "address"
        }
      ],
      "stateMutability": "view",
      "type": "function"
    },
    {
      "inputs": [
        {
          "internalType": "bytes32",
          "name": "role",
          "type": "bytes32"
        }
      ],
      "name": "getRoleMemberCount",
      "outputs": [
        {
          "internalType": "uint256",
          "name": "",
          "type": "uint256"
        }
      ],
      "stateMutability": "view",
      "type": "function"
    },
    {
      "inputs": [
        {
          "internalType": "address",
          "name": "_userAccount",
          "type": "address"
        }
      ],
      "name": "grantRecyclerRole",
      "outputs": [],
      "stateMutability": "nonpayable",
      "type": "function"
    },
    {
      "inputs": [
        {
          "internalType": "bytes32",
          "name": "role",
          "type": "bytes32"
        },
        {
          "internalType": "address",
          "name": "account",
          "type": "address"
        }
      ],
      "name": "grantRole",
      "outputs": [],
      "stateMutability": "nonpayable",
      "type": "function"
    },
    {
      "inputs": [
        {
          "internalType": "bytes32",
          "name": "role",
          "type": "bytes32"
        },
        {
          "internalType": "address",
          "name": "account",
          "type": "address"
        }
      ],
      "name": "hasRole",
      "outputs": [
        {
          "internalType": "bool",
          "name": "",
          "type": "bool"
        }
      ],
      "stateMutability": "view",
      "type": "function"
    },
    {
      "inputs": [
        {
          "internalType": "uint256",
          "name": "",
          "type": "uint256"
        }
      ],
      "name": "idToBox",
      "outputs": [
        {
          "internalType": "uint256",
          "name": "id",
          "type": "uint256"
        },
        {
          "internalType": "uint256",
          "name": "timestamp",
          "type": "uint256"
        },
        {
          "internalType": "uint256",
          "name": "numberOfClothTypes",
          "type": "uint256"
        },
        {
          "internalType": "uint256",
          "name": "evaluationInToken",
          "type": "uint256"
        },
        {
          "internalType": "string",
          "name": "description",
          "type": "string"
        },
        {
          "internalType": "address",
          "name": "sender",
          "type": "address"
        }
      ],
      "stateMutability": "view",
      "type": "function"
    },
    {
      "inputs": [
        {
          "internalType": "uint256",
          "name": "",
          "type": "uint256"
        }
      ],
      "name": "idToSaleableCloth",
      "outputs": [
        {
          "internalType": "uint256",
          "name": "id",
          "type": "uint256"
        },
        {
          "internalType": "uint256",
          "name": "price",
          "type": "uint256"
        },
        {
          "internalType": "enum CLOTH_TYPE",
          "name": "clothType",
          "type": "uint8"
        },
        {
          "internalType": "enum CLOTH_SIZE",
          "name": "clothSize",
          "type": "uint8"
        },
        {
          "internalType": "enum CLOTH_STATUS",
          "name": "clothStatus",
          "type": "uint8"
        },
        {
          "internalType": "string",
          "name": "description",
          "type": "string"
        },
        {
          "internalType": "address",
          "name": "buyer",
          "type": "address"
        },
        {
          "internalType": "uint256",
          "name": "timestamp",
          "type": "uint256"
        },
        {
          "internalType": "bytes",
          "name": "info",
          "type": "bytes"
        }
      ],
      "stateMutability": "view",
      "type": "function"
    },
    {
      "inputs": [
        {
          "internalType": "enum CLOTH_TYPE",
          "name": "",
          "type": "uint8"
        }
      ],
      "name": "inventory",
      "outputs": [
        {
          "internalType": "uint256",
          "name": "",
          "type": "uint256"
        }
      ],
      "stateMutability": "view",
      "type": "function"
    },
    {
      "inputs": [],
      "name": "reclothesDealer",
      "outputs": [
        {
          "internalType": "address",
          "name": "",
          "type": "address"
        }
      ],
      "stateMutability": "view",
      "type": "function"
    },
    {
      "inputs": [],
      "name": "regenerationCreditInstance",
      "outputs": [
        {
          "internalType": "contract RegenerationCredit",
          "name": "",
          "type": "address"
        }
      ],
      "stateMutability": "view",
      "type": "function"
    },
    {
      "inputs": [],
      "name": "registerAsCustomer",
      "outputs": [],
      "stateMutability": "nonpayable",
      "type": "function"
    },
    {
      "inputs": [
        {
          "internalType": "bytes32",
          "name": "role",
          "type": "bytes32"
        },
        {
          "internalType": "address",
          "name": "account",
          "type": "address"
        }
      ],
      "name": "renounceRole",
      "outputs": [],
      "stateMutability": "nonpayable",
      "type": "function"
    },
    {
      "inputs": [],
      "name": "renounceToCustomerRole",
      "outputs": [],
      "stateMutability": "nonpayable",
      "type": "function"
    },
    {
      "inputs": [],
      "name": "resellingCreditInstance",
      "outputs": [
        {
          "internalType": "contract ResellingCredit",
          "name": "",
          "type": "address"
        }
      ],
      "stateMutability": "view",
      "type": "function"
    },
    {
      "inputs": [
        {
          "internalType": "address",
          "name": "_recycler",
          "type": "address"
        }
      ],
      "name": "revokeRecyclerRole",
      "outputs": [],
      "stateMutability": "nonpayable",
      "type": "function"
    },
    {
      "inputs": [
        {
          "internalType": "bytes32",
          "name": "role",
          "type": "bytes32"
        },
        {
          "internalType": "address",
          "name": "account",
          "type": "address"
        }
      ],
      "name": "revokeRole",
      "outputs": [],
      "stateMutability": "nonpayable",
      "type": "function"
    },
    {
      "inputs": [
        {
          "internalType": "uint256",
          "name": "_boxId",
          "type": "uint256"
        },
        {
          "internalType": "string",
          "name": "_description",
          "type": "string"
        },
        {
          "internalType": "enum CLOTH_TYPE[]",
          "name": "_clothesTypes",
          "type": "uint8[]"
        },
        {
          "internalType": "uint256[]",
          "name": "_quantities",
          "type": "uint256[]"
        }
      ],
      "name": "sendBoxForEvaluation",
      "outputs": [],
      "stateMutability": "nonpayable",
      "type": "function"
    },
    {
      "inputs": [
        {
          "internalType": "uint256",
          "name": "_boxId",
          "type": "uint256"
        },
        {
          "internalType": "uint256",
          "name": "_extraAmountRSC",
          "type": "uint256"
        }
      ],
      "name": "evaluateBox",
      "outputs": [],
      "stateMutability": "nonpayable",
      "type": "function"
    },
    {
      "inputs": [
        {
          "internalType": "uint256",
          "name": "_clothId",
          "type": "uint256"
        },
        {
          "internalType": "uint256",
          "name": "_rscPrice",
          "type": "uint256"
        },
        {
          "internalType": "enum CLOTH_TYPE",
          "name": "_clothType",
          "type": "uint8"
        },
        {
          "internalType": "enum CLOTH_SIZE",
          "name": "_clothSize",
          "type": "uint8"
        },
        {
          "internalType": "string",
          "name": "_description",
          "type": "string"
        },
        {
          "internalType": "bytes",
          "name": "_extClothDataHash",
          "type": "bytes"
        }
      ],
      "name": "sellSecondHandCloth",
      "outputs": [],
      "stateMutability": "nonpayable",
      "type": "function"
    },
    {
      "inputs": [
        {
          "internalType": "uint256",
          "name": "_clothId",
          "type": "uint256"
        },
        {
          "internalType": "uint256",
          "name": "_rscPrice",
          "type": "uint256"
        },
        {
          "internalType": "enum CLOTH_TYPE",
          "name": "_clothType",
          "type": "uint8"
        },
        {
          "internalType": "enum CLOTH_SIZE",
          "name": "_clothSize",
          "type": "uint8"
        },
        {
          "internalType": "string",
          "name": "_description",
          "type": "string"
        },
        {
          "internalType": "bytes",
          "name": "_extClothDataHash",
          "type": "bytes"
        },
        {
          "internalType": "string",
          "name": "_confidentialTxHash",
          "type": "string"
        }
      ],
      "name": "sellUpcycledCloth",
      "outputs": [],
      "stateMutability": "nonpayable",
      "type": "function"
    },
    {
      "inputs": [
        {
          "internalType": "uint256",
          "name": "_clothId",
          "type": "uint256"
        }
      ],
      "name": "buyCloth",
      "outputs": [],
      "stateMutability": "nonpayable",
      "type": "function"
    },
    {
      "inputs": [
        {
          "internalType": "enum CLOTH_TYPE[]",
          "name": "_clothesTypes",
          "type": "uint8[]"
        },
        {
          "internalType": "uint256[]",
          "name": "_quantities",
          "type": "uint256[]"
        },
        {
          "internalType": "string",
          "name": "_confidentialTxHash",
          "type": "string"
        }
      ],
      "name": "decreaseStockForConfidentialBox",
      "outputs": [],
      "stateMutability": "nonpayable",
      "type": "function"
    },
    {
      "inputs": [
        {
          "internalType": "address",
          "name": "_recycler",
          "type": "address"
        },
        {
          "internalType": "uint256",
          "name": "_rscAmount",
          "type": "uint256"
        },
        {
          "internalType": "string",
          "name": "_confidentialTxHash",
          "type": "string"
        }
      ],
      "name": "transferRSCForConfidentialTx",
      "outputs": [],
      "stateMutability": "nonpayable",
      "type": "function"
    },
    {
      "inputs": [
        {
          "internalType": "uint256",
          "name": "_rgcAmount",
          "type": "uint256"
        },
        {
          "internalType": "string",
          "name": "_confidentialTxHash",
          "type": "string"
        }
      ],
      "name": "transferRGCForConfidentialTx",
      "outputs": [],
      "stateMutability": "nonpayable",
      "type": "function"
    },
    {
      "inputs": [],
      "name": "getAllSaleableClothesIds",
      "outputs": [
        {
          "internalType": "uint256[]",
          "name": "",
          "type": "uint256[]"
        }
      ],
      "stateMutability": "view",
      "type": "function"
    },
    {
      "inputs": [
        {
          "internalType": "address",
          "name": "_customer",
          "type": "address"
        }
      ],
      "name": "getAllCustomerBoxesIds",
      "outputs": [
        {
          "internalType": "uint256[]",
          "name": "",
          "type": "uint256[]"
        }
      ],
      "stateMutability": "view",
      "type": "function"
    },
    {
      "inputs": [
        {
          "internalType": "address",
          "name": "_customer",
          "type": "address"
        }
      ],
      "name": "getAllPurchasedClothesIds",
      "outputs": [
        {
          "internalType": "uint256[]",
          "name": "",
          "type": "uint256[]"
        }
      ],
      "stateMutability": "view",
      "type": "function"
    }
  ],
  "bytecode": "0x60806040523480156200001157600080fd5b5060405162004d7038038062004d70833981810160405260408110156200003757600080fd5b810190808051906020019092919080519060200190929190505050620000676000801b336200025c60201b60201c565b33600460006101000a81548173ffffffffffffffffffffffffffffffffffffffff021916908373ffffffffffffffffffffffffffffffffffffffff16021790555081600260006101000a81548173ffffffffffffffffffffffffffffffffffffffff021916908373ffffffffffffffffffffffffffffffffffffffff16021790555080600360006101000a81548173ffffffffffffffffffffffffffffffffffffffff021916908373ffffffffffffffffffffffffffffffffffffffff1602179055506002600560008060058111156200013d57fe5b60058111156200014957fe5b815260200190815260200160002081905550600460056000600160058111156200016f57fe5b60058111156200017b57fe5b81526020019081526020016000208190555060076005600060026005811115620001a157fe5b6005811115620001ad57fe5b815260200190815260200160002081905550600f6005600060036005811115620001d357fe5b6005811115620001df57fe5b815260200190815260200160002081905550600860056000600460058111156200020557fe5b60058111156200021157fe5b815260200190815260200160002081905550600a600560006005808111156200023657fe5b60058111156200024257fe5b8152602001908152602001600020819055505050620003f2565b6200026e82826200027260201b60201c565b5050565b620002a0816000808581526020019081526020016000206000016200031560201b620036a71790919060201c565b156200031157620002b66200034d60201b60201c565b73ffffffffffffffffffffffffffffffffffffffff168173ffffffffffffffffffffffffffffffffffffffff16837f2f8788117e7eff1d82e926ec794901d17c78024a50270940304540a733656f0d60405160405180910390a45b5050565b600062000345836000018373ffffffffffffffffffffffffffffffffffffffff1660001b6200035560201b60201c565b905092915050565b600033905090565b6000620003698383620003cf60201b60201c565b620003c4578260000182908060018154018082558091505060019003906000526020600020016000909190919091505582600001805490508360010160008481526020019081526020016000208190555060019050620003c9565b600090505b92915050565b600080836001016000848152602001908152602001600020541415905092915050565b61496e80620004026000396000f3fe608060405234801561001057600080fd5b50600436106102115760003560e01c80639010d07c11610125578063d547741f116100ad578063eda0930d1161007c578063eda0930d14610f43578063ee82f0f014610f77578063f4baffa814610fbb578063f68a652014611054578063fe2069ba146110b657610211565b8063d547741f14610d4f578063e0341afe14610d9d578063e3d5eabe14610dd1578063e789ac1014610efe57610211565b8063a217fddf116100f4578063a217fddf14610c1a578063bf31377814610c38578063c36eea0914610c56578063c916120d14610c8a578063ca15c87314610d0d57610211565b80639010d07c14610b0657806391d1485414610b685780639fbd69f614610bcc578063a04bd58d14610c1057610211565b8063336989ae116101a85780634a71553f116101775780634a71553f1461077857806363957c6a146108585780637b86887d146108f15780637c7478ca1461092957806387804ded1461098b57610211565b8063336989ae1461062357806336568abe1461067d57806338461636146106cb5780633d71ab59146106d557610211565b8063232b563e116101e4578063232b563e146103e4578063248a9ca3146105355780632b2ae4c9146105775780632f2ff15d146105d557610211565b80630a421dcf146102165780630ce3e976146103125780631e0c969e146103715780631e5a8ba3146103b6575b600080fd5b610310600480360360c081101561022c57600080fd5b810190808035906020019092919080359060200190929190803560ff169060200190929190803560ff1690602001909291908035906020019064010000000081111561027757600080fd5b82018360208201111561028957600080fd5b803590602001918460018302840111640100000000831117156102ab57600080fd5b9091929391929390803590602001906401000000008111156102cc57600080fd5b8201836020820111156102de57600080fd5b8035906020019184600183028401116401000000008311171561030057600080fd5b90919293919293905050506111d9565b005b61031a6112cc565b6040518080602001828103825283818151815260200191508051906020019060200280838360005b8381101561035d578082015181840152602081019050610342565b505050509050019250505060405180910390f35b6103a06004803603602081101561038757600080fd5b81019080803560ff169060200190929190505050611324565b6040518082815260200191505060405180910390f35b6103e2600480360360208110156103cc57600080fd5b810190808035906020019092919050505061133c565b005b610533600480360360e08110156103fa57600080fd5b810190808035906020019092919080359060200190929190803560ff169060200190929190803560ff1690602001909291908035906020019064010000000081111561044557600080fd5b82018360208201111561045757600080fd5b8035906020019184600183028401116401000000008311171561047957600080fd5b90919293919293908035906020019064010000000081111561049a57600080fd5b8201836020820111156104ac57600080fd5b803590602001918460018302840111640100000000831117156104ce57600080fd5b9091929391929390803590602001906401000000008111156104ef57600080fd5b82018360208201111561050157600080fd5b8035906020019184600183028401116401000000008311171561052357600080fd5b909192939192939050505061179d565b005b6105616004803603602081101561054b57600080fd5b8101908080359060200190929190505050611826565b6040518082815260200191505060405180910390f35b6105ad6004803603604081101561058d57600080fd5b810190808035906020019092919080359060200190929190505050611845565b604051808360058111156105bd57fe5b81526020018281526020019250505060405180910390f35b610621600480360360408110156105eb57600080fd5b8101908080359060200190929190803573ffffffffffffffffffffffffffffffffffffffff169060200190929190505050611890565b005b6106656004803603602081101561063957600080fd5b81019080803573ffffffffffffffffffffffffffffffffffffffff169060200190929190505050611919565b60405180821515815260200191505060405180910390f35b6106c96004803603604081101561069357600080fd5b8101908080359060200190929190803573ffffffffffffffffffffffffffffffffffffffff169060200190929190505050611939565b005b6106d36119d2565b005b610776600480360360608110156106eb57600080fd5b81019080803573ffffffffffffffffffffffffffffffffffffffff169060200190929190803590602001909291908035906020019064010000000081111561073257600080fd5b82018360208201111561074457600080fd5b8035906020019184600183028401116401000000008311171561076657600080fd5b9091929391929390505050611aaa565b005b6107a46004803603602081101561078e57600080fd5b8101908080359060200190929190505050611dde565b60405180878152602001868152602001858152602001848152602001806020018373ffffffffffffffffffffffffffffffffffffffff168152602001828103825284818151815260200191508051906020019080838360005b838110156108185780820151818401526020810190506107fd565b50505050905090810190601f1680156108455780820380516001836020036101000a031916815260200191505b5097505050505050505060405180910390f35b61089a6004803603602081101561086e57600080fd5b81019080803573ffffffffffffffffffffffffffffffffffffffff169060200190929190505050611ed2565b6040518080602001828103825283818151815260200191508051906020019060200280838360005b838110156108dd5780820151818401526020810190506108c2565b505050509050019250505060405180910390f35b6109276004803603604081101561090757600080fd5b810190808035906020019092919080359060200190929190505050611f69565b005b6109756004803603604081101561093f57600080fd5b81019080803573ffffffffffffffffffffffffffffffffffffffff169060200190929190803590602001909291905050506124c5565b6040518082815260200191505060405180910390f35b6109b7600480360360208110156109a157600080fd5b81019080803590602001909291905050506124f3565b604051808a81526020018981526020018860058111156109d357fe5b81526020018760058111156109e457fe5b81526020018660028111156109f557fe5b8152602001806020018573ffffffffffffffffffffffffffffffffffffffff16815260200184815260200180602001838103835287818151815260200191508051906020019080838360005b83811015610a5c578082015181840152602081019050610a41565b50505050905090810190601f168015610a895780820380516001836020036101000a031916815260200191505b50838103825284818151815260200191508051906020019080838360005b83811015610ac2578082015181840152602081019050610aa7565b50505050905090810190601f168015610aef5780820380516001836020036101000a031916815260200191505b509b50505050505050505050505060405180910390f35b610b3c60048036036040811015610b1c57600080fd5b8101908080359060200190929190803590602001909291905050506126b8565b604051808273ffffffffffffffffffffffffffffffffffffffff16815260200191505060405180910390f35b610bb460048036036040811015610b7e57600080fd5b8101908080359060200190929190803573ffffffffffffffffffffffffffffffffffffffff1690602001909291905050506126e9565b60405180821515815260200191505060405180910390f35b610c0e60048036036020811015610be257600080fd5b81019080803573ffffffffffffffffffffffffffffffffffffffff16906020019092919050505061271a565b005b610c186127ac565b005b610c226127be565b6040518082815260200191505060405180910390f35b610c406127c5565b6040518082815260200191505060405180910390f35b610c5e6127e9565b604051808273ffffffffffffffffffffffffffffffffffffffff16815260200191505060405180910390f35b610d0b60048036036040811015610ca057600080fd5b810190808035906020019092919080359060200190640100000000811115610cc757600080fd5b820183602082011115610cd957600080fd5b80359060200191846001830284011164010000000083111715610cfb57600080fd5b909192939192939050505061280f565b005b610d3960048036036020811015610d2357600080fd5b8101908080359060200190929190505050612b05565b6040518082815260200191505060405180910390f35b610d9b60048036036040811015610d6557600080fd5b8101908080359060200190929190803573ffffffffffffffffffffffffffffffffffffffff169060200190929190505050612b2b565b005b610da5612bb4565b604051808273ffffffffffffffffffffffffffffffffffffffff16815260200191505060405180910390f35b610efc60048036036080811015610de757600080fd5b810190808035906020019092919080359060200190640100000000811115610e0e57600080fd5b820183602082011115610e2057600080fd5b80359060200191846001830284011164010000000083111715610e4257600080fd5b909192939192939080359060200190640100000000811115610e6357600080fd5b820183602082011115610e7557600080fd5b80359060200191846020830284011164010000000083111715610e9757600080fd5b909192939192939080359060200190640100000000811115610eb857600080fd5b820183602082011115610eca57600080fd5b80359060200191846020830284011164010000000083111715610eec57600080fd5b9091929391929390505050612bda565b005b610f2d60048036036020811015610f1457600080fd5b81019080803560ff169060200190929190505050613219565b6040518082815260200191505060405180910390f35b610f4b613231565b604051808273ffffffffffffffffffffffffffffffffffffffff16815260200191505060405180910390f35b610fb960048036036020811015610f8d57600080fd5b81019080803573ffffffffffffffffffffffffffffffffffffffff169060200190929190505050613257565b005b610ffd60048036036020811015610fd157600080fd5b81019080803573ffffffffffffffffffffffffffffffffffffffff1690602001909291905050506132e9565b6040518080602001828103825283818151815260200191508051906020019060200280838360005b83811015611040578082015181840152602081019050611025565b505050509050019250505060405180910390f35b6110a06004803603604081101561106a57600080fd5b81019080803573ffffffffffffffffffffffffffffffffffffffff16906020019092919080359060200190929190505050613380565b6040518082815260200191505060405180910390f35b6111d7600480360360608110156110cc57600080fd5b81019080803590602001906401000000008111156110e957600080fd5b8201836020820111156110fb57600080fd5b8035906020019184602083028401116401000000008311171561111d57600080fd5b90919293919293908035906020019064010000000081111561113e57600080fd5b82018360208201111561115057600080fd5b8035906020019184602083028401116401000000008311171561117257600080fd5b90919293919293908035906020019064010000000081111561119357600080fd5b8201836020820111156111a557600080fd5b803590602001918460018302840111640100000000831117156111c757600080fd5b90919293919293905050506133ae565b005b6000600960008860058111156111eb57fe5b60058111156111f657fe5b81526020019081526020016000205411611278576040517f08c379a00000000000000000000000000000000000000000000000000000000081526004018080602001828103825260178152602001807f494e56454e544f52592d5a45524f2d5155414e5449545900000000000000000081525060200191505060405180910390fd5b61128a888888886000898989896136d7565b60016009600088600581111561129c57fe5b60058111156112a757fe5b8152602001908152602001600020600082825403925050819055505050505050505050565b6060600c80548060200260200160405190810160405280929190818152602001828054801561131a57602002820191906000526020600020905b815481526020019060010190808311611306575b5050505050905090565b60096020528060005260406000206000915090505481565b60016000611348613c29565b73ffffffffffffffffffffffffffffffffffffffff1673ffffffffffffffffffffffffffffffffffffffff16815260200190815260200160002060009054906101000a900460ff16611402576040517f08c379a000000000000000000000000000000000000000000000000000000000815260040180806020018281038252600c8152602001807f4e4f542d435553544f4d4552000000000000000000000000000000000000000081525060200191505060405180910390fd5b8060086000838152602001908152602001600020600001541461148d576040517f08c379a000000000000000000000000000000000000000000000000000000000815260040180806020018281038252600d8152602001807f494e56414c49442d434c4f54480000000000000000000000000000000000000081525060200191505060405180910390fd5b600073ffffffffffffffffffffffffffffffffffffffff166008600083815260200190815260200160002060040160009054906101000a900473ffffffffffffffffffffffffffffffffffffffff1673ffffffffffffffffffffffffffffffffffffffff1614611565576040517f08c379a000000000000000000000000000000000000000000000000000000000815260040180806020018281038252600c8152602001807f414c52454144592d534f4c44000000000000000000000000000000000000000081525060200191505060405180910390fd5b336008600083815260200190815260200160002060040160006101000a81548173ffffffffffffffffffffffffffffffffffffffff021916908373ffffffffffffffffffffffffffffffffffffffff160217905550600b60003373ffffffffffffffffffffffffffffffffffffffff1673ffffffffffffffffffffffffffffffffffffffff1681526020019081526020016000208190806001815401808255809150506001900390600052602060002001600090919091909150557f960baee9d2afc24bf5a2863ceb9678d7a14d4fd531ed2d80afeebb7cf873f87b816008600084815260200190815260200160002060010154604051808381526020018281526020019250505060405180910390a1600260009054906101000a900473ffffffffffffffffffffffffffffffffffffffff1673ffffffffffffffffffffffffffffffffffffffff166323b872dd33600460009054906101000a900473ffffffffffffffffffffffffffffffffffffffff1660086000868152602001908152602001600020600101546040518463ffffffff1660e01b8152600401808473ffffffffffffffffffffffffffffffffffffffff1681526020018373ffffffffffffffffffffffffffffffffffffffff1681526020018281526020019350505050602060405180830381600087803b15801561175e57600080fd5b505af1158015611772573d6000803e3d6000fd5b505050506040513d602081101561178857600080fd5b81019080805190602001909291905050505050565b6117af8a8a8a8a60018b8b8b8b6136d7565b7f952d53988f9efcb475d05af564b0f2f0e863257e75510f9d6fd2381dbdf19c4b8a838360405180848152602001806020018281038252848482818152602001925080828437600081840152601f19601f82011690508083019250505094505050505060405180910390a150505050505050505050565b6000806000838152602001908152602001600020600201549050919050565b6007602052816000526040600020818154811061185e57fe5b9060005260206000209060020201600091509150508060000160009054906101000a900460ff16908060010154905082565b6118b6600080848152602001908152602001600020600201546118b1613c29565b6126e9565b61190b576040517f08c379a000000000000000000000000000000000000000000000000000000000815260040180806020018281038252602f8152602001806148ab602f913960400191505060405180910390fd5b6119158282613c31565b5050565b60016020528060005260406000206000915054906101000a900460ff1681565b611941613c29565b73ffffffffffffffffffffffffffffffffffffffff168173ffffffffffffffffffffffffffffffffffffffff16146119c4576040517f08c379a000000000000000000000000000000000000000000000000000000000815260040180806020018281038252602f81526020018061490a602f913960400191505060405180910390fd5b6119ce8282613cc4565b5050565b600160006119de613c29565b73ffffffffffffffffffffffffffffffffffffffff1673ffffffffffffffffffffffffffffffffffffffff16815260200190815260200160002060009054906101000a900460ff16611a98576040517f08c379a000000000000000000000000000000000000000000000000000000000815260040180806020018281038252600c8152602001807f4e4f542d435553544f4d4552000000000000000000000000000000000000000081525060200191505060405180910390fd5b611aa8611aa3613c29565b613d57565b565b83611ad57f11d2c681bc9c10ed61f9a422c0dbaaddc4054ce58ec726aca73e7e4d31bcd154826126e9565b611b47576040517f08c379a000000000000000000000000000000000000000000000000000000000815260040180806020018281038252600c8152602001807f4e4f542d52454359434c4552000000000000000000000000000000000000000081525060200191505060405180910390fd5b611b5b6000801b611b56613c29565b6126e9565b611bcd576040517f08c379a000000000000000000000000000000000000000000000000000000000815260040180806020018281038252600a8152602001807f4e4f542d4445414c45520000000000000000000000000000000000000000000081525060200191505060405180910390fd5b60008411611c43576040517f08c379a000000000000000000000000000000000000000000000000000000000815260040180806020018281038252600b8152602001807f5a45524f2d414d4f554e5400000000000000000000000000000000000000000081525060200191505060405180910390fd5b7f364354f3a90582d31c5b5737fc24e02dfad21f1386e262bbab182e168f52e79b3386868686604051808673ffffffffffffffffffffffffffffffffffffffff1681526020018573ffffffffffffffffffffffffffffffffffffffff168152602001848152602001806020018281038252848482818152602001925080828437600081840152601f19601f820116905080830192505050965050505050505060405180910390a1600260009054906101000a900473ffffffffffffffffffffffffffffffffffffffff1673ffffffffffffffffffffffffffffffffffffffff166323b872dd3387876040518463ffffffff1660e01b8152600401808473ffffffffffffffffffffffffffffffffffffffff1681526020018373ffffffffffffffffffffffffffffffffffffffff1681526020018281526020019350505050602060405180830381600087803b158015611d9b57600080fd5b505af1158015611daf573d6000803e3d6000fd5b505050506040513d6020811015611dc557600080fd5b8101908080519060200190929190505050505050505050565b6006602052806000526040600020600091509050806000015490806001015490806002015490806003015490806004018054600181600116156101000203166002900480601f016020809104026020016040519081016040528092919081815260200182805460018160011615610100020316600290048015611ea25780601f10611e7757610100808354040283529160200191611ea2565b820191906000526020600020905b815481529060010190602001808311611e8557829003601f168201915b5050505050908060050160009054906101000a900473ffffffffffffffffffffffffffffffffffffffff16905086565b6060600a60008373ffffffffffffffffffffffffffffffffffffffff1673ffffffffffffffffffffffffffffffffffffffff168152602001908152602001600020805480602002602001604051908101604052809291908181526020018280548015611f5d57602002820191906000526020600020905b815481526020019060010190808311611f49575b50505050509050919050565b8180600660008381526020019081526020016000206000015414611ff5576040517f08c379a00000000000000000000000000000000000000000000000000000000081526004018080602001828103825260078152602001807f4e4f542d424f580000000000000000000000000000000000000000000000000081525060200191505060405180910390fd5b6120096000801b612004613c29565b6126e9565b61207b576040517f08c379a000000000000000000000000000000000000000000000000000000000815260040180806020018281038252600a8152602001807f4e4f542d4445414c45520000000000000000000000000000000000000000000081525060200191505060405180910390fd5b6000600660008581526020019081526020016000206003015414612107576040517f08c379a00000000000000000000000000000000000000000000000000000000081526004018080602001828103825260118152602001807f414c52454144592d4556414c554154454400000000000000000000000000000081525060200191505060405180910390fd5b6000829050606060076000868152602001908152602001600020805480602002602001604051908101604052809291908181526020016000905b828210156121aa57838290600052602060002090600202016040518060400160405290816000820160009054906101000a900460ff16600581111561218257fe5b600581111561218d57fe5b815260200160018201548152505081526020019060010190612141565b50505050905060005b8151811015612227578181815181106121c857fe5b602002602001015160200151600560008484815181106121e457fe5b60200260200101516000015160058111156121fb57fe5b600581111561220657fe5b815260200190815260200160002054028301925080806001019150506121b3565b5060005b815181101561231e5781818151811061224057fe5b6020026020010151602001516009600084848151811061225c57fe5b602002602001015160000151600581111561227357fe5b600581111561227e57fe5b8152602001908152602001600020600082825401925050819055507f5b8ef9b7bc71b2ec43396773ee01b4bc46fecdf2a2f7b15d514415748067a7358282815181106122c657fe5b6020026020010151600001518383815181106122de57fe5b602002602001015160200151604051808360058111156122fa57fe5b81526020018281526020019250505060405180910390a1808060010191505061222b565b508160066000878152602001908152602001600020600301819055507f1e10c636ba54863a5d587c0cc76257de2a98ab3e497b5de08b92d7ac706d4ba28583604051808381526020018281526020019250505060405180910390a1600260009054906101000a900473ffffffffffffffffffffffffffffffffffffffff1673ffffffffffffffffffffffffffffffffffffffff166323b872dd600460009054906101000a900473ffffffffffffffffffffffffffffffffffffffff166006600089815260200190815260200160002060050160009054906101000a900473ffffffffffffffffffffffffffffffffffffffff16856040518463ffffffff1660e01b8152600401808473ffffffffffffffffffffffffffffffffffffffff1681526020018373ffffffffffffffffffffffffffffffffffffffff1681526020018281526020019350505050602060405180830381600087803b15801561248257600080fd5b505af1158015612496573d6000803e3d6000fd5b505050506040513d60208110156124ac57600080fd5b8101908080519060200190929190505050505050505050565b600a60205281600052604060002081815481106124de57fe5b90600052602060002001600091509150505481565b60086020528060005260406000206000915090508060000154908060010154908060020160009054906101000a900460ff16908060020160019054906101000a900460ff16908060020160029054906101000a900460ff1690806003018054600181600116156101000203166002900480601f0160208091040260200160405190810160405280929190818152602001828054600181600116156101000203166002900480156125e45780601f106125b9576101008083540402835291602001916125e4565b820191906000526020600020905b8154815290600101906020018083116125c757829003601f168201915b5050505050908060040160009054906101000a900473ffffffffffffffffffffffffffffffffffffffff1690806005015490806006018054600181600116156101000203166002900480601f0160208091040260200160405190810160405280929190818152602001828054600181600116156101000203166002900480156126ae5780601f10612683576101008083540402835291602001916126ae565b820191906000526020600020905b81548152906001019060200180831161269157829003601f168201915b5050505050905089565b60006126e182600080868152602001908152602001600020600001613dff90919063ffffffff16565b905092915050565b600061271282600080868152602001908152602001600020600001613e1990919063ffffffff16565b905092915050565b61272e6000801b612729613c29565b6126e9565b6127a0576040517f08c379a000000000000000000000000000000000000000000000000000000000815260040180806020018281038252600a8152602001807f4e4f542d4445414c45520000000000000000000000000000000000000000000081525060200191505060405180910390fd5b6127a981613e49565b50565b6127bc6127b7613c29565b6140a6565b565b6000801b81565b7f11d2c681bc9c10ed61f9a422c0dbaaddc4054ce58ec726aca73e7e4d31bcd15481565b600260009054906101000a900473ffffffffffffffffffffffffffffffffffffffff1681565b6128407f11d2c681bc9c10ed61f9a422c0dbaaddc4054ce58ec726aca73e7e4d31bcd15461283b613c29565b6126e9565b6128b2576040517f08c379a000000000000000000000000000000000000000000000000000000000815260040180806020018281038252600c8152602001807f4e4f542d52454359434c4552000000000000000000000000000000000000000081525060200191505060405180910390fd5b60008311612928576040517f08c379a000000000000000000000000000000000000000000000000000000000815260040180806020018281038252600b8152602001807f5a45524f2d414d4f554e5400000000000000000000000000000000000000000081525060200191505060405180910390fd5b7f364354f3a90582d31c5b5737fc24e02dfad21f1386e262bbab182e168f52e79b33600460009054906101000a900473ffffffffffffffffffffffffffffffffffffffff16858585604051808673ffffffffffffffffffffffffffffffffffffffff1681526020018573ffffffffffffffffffffffffffffffffffffffff168152602001848152602001806020018281038252848482818152602001925080828437600081840152601f19601f820116905080830192505050965050505050505060405180910390a1600360009054906101000a900473ffffffffffffffffffffffffffffffffffffffff1673ffffffffffffffffffffffffffffffffffffffff166323b872dd33600460009054906101000a900473ffffffffffffffffffffffffffffffffffffffff16866040518463ffffffff1660e01b8152600401808473ffffffffffffffffffffffffffffffffffffffff1681526020018373ffffffffffffffffffffffffffffffffffffffff1681526020018281526020019350505050602060405180830381600087803b158015612ac457600080fd5b505af1158015612ad8573d6000803e3d6000fd5b505050506040513d6020811015612aee57600080fd5b810190808051906020019092919050505050505050565b6000612b24600080848152602001908152602001600020600001614330565b9050919050565b612b5160008084815260200190815260200160002060020154612b4c613c29565b6126e9565b612ba6576040517f08c379a00000000000000000000000000000000000000000000000000000000081526004018080602001828103825260308152602001806148da6030913960400191505060405180910390fd5b612bb08282613cc4565b5050565b600360009054906101000a900473ffffffffffffffffffffffffffffffffffffffff1681565b60016000612be6613c29565b73ffffffffffffffffffffffffffffffffffffffff1673ffffffffffffffffffffffffffffffffffffffff16815260200190815260200160002060009054906101000a900460ff16612ca0576040517f08c379a000000000000000000000000000000000000000000000000000000000815260040180806020018281038252600c8152602001807f4e4f542d435553544f4d4552000000000000000000000000000000000000000081525060200191505060405180910390fd5b8660008111612d17576040517f08c379a00000000000000000000000000000000000000000000000000000000081526004018080602001828103825260078152602001807f5a45524f2d49440000000000000000000000000000000000000000000000000081525060200191505060405180910390fd5b6000600660008381526020019081526020016000206000015414612da3576040517f08c379a000000000000000000000000000000000000000000000000000000000815260040180806020018281038252600f8152602001807f414c52454144592d555345442d4944000000000000000000000000000000000081525060200191505060405180910390fd5b8282905085859050148015612dbc575060068585905011155b612e2e576040517f08c379a000000000000000000000000000000000000000000000000000000000815260040180806020018281038252600e8152602001807f494e56414c49442d41525241595300000000000000000000000000000000000081525060200191505060405180910390fd5b612e3661469c565b6040518060c001604052808a81526020014281526020018787905081526020016000815260200189898080601f016020809104026020016040519081016040528093929190818152602001838380828437600081840152601f19601f8201169050808301925050505050505081526020013373ffffffffffffffffffffffffffffffffffffffff16815250905060005b8686905081101561302b576000858583818110612edf57fe5b9050602002013511612f59576040517f08c379a000000000000000000000000000000000000000000000000000000000815260040180806020018281038252600d8152602001807f5a45524f2d5155414e544954590000000000000000000000000000000000000081525060200191505060405180910390fd5b600760008b81526020019081526020016000206040518060400160405280898985818110612f8357fe5b90506020020135600581118015612f9957600080fd5b506005811115612fa557fe5b8152602001878785818110612fb657fe5b90506020020135815250908060018154018082558091505060019003906000526020600020906002020160009091909190915060008201518160000160006101000a81548160ff0219169083600581111561300d57fe5b02179055506020820151816001015550508080600101915050612ec6565b5080600660008b81526020019081526020016000206000820151816000015560208201518160010155604082015181600201556060820151816003015560808201518160040190805190602001906130849291906146e8565b5060a08201518160050160006101000a81548173ffffffffffffffffffffffffffffffffffffffff021916908373ffffffffffffffffffffffffffffffffffffffff160217905550905050600a60003373ffffffffffffffffffffffffffffffffffffffff1673ffffffffffffffffffffffffffffffffffffffff1681526020019081526020016000208990806001815401808255809150506001900390600052602060002001600090919091909150557f0ff763f44ce5c8ce1ce05ef055d4cb0b99a3bd7485afe9c7353205d29dfe2088898989898989896040518088815260200180602001806020018060200184810384528a8a82818152602001925080828437600081840152601f19601f8201169050808301925050508481038352888882818152602001925060200280828437600081840152601f19601f8201169050808301925050508481038252868682818152602001925060200280828437600081840152601f19601f8201169050808301925050509a505050505050505050505060405180910390a1505050505050505050565b60056020528060005260406000206000915090505481565b600460009054906101000a900473ffffffffffffffffffffffffffffffffffffffff1681565b61326b6000801b613266613c29565b6126e9565b6132dd576040517f08c379a000000000000000000000000000000000000000000000000000000000815260040180806020018281038252600a8152602001807f4e4f542d4445414c45520000000000000000000000000000000000000000000081525060200191505060405180910390fd5b6132e681614345565b50565b6060600b60008373ffffffffffffffffffffffffffffffffffffffff1673ffffffffffffffffffffffffffffffffffffffff16815260200190815260200160002080548060200260200160405190810160405280929190818152602001828054801561337457602002820191906000526020600020905b815481526020019060010190808311613360575b50505050509050919050565b600b602052816000526040600020818154811061339957fe5b90600052602060002001600091509150505481565b6133c26000801b6133bd613c29565b6126e9565b613434576040517f08c379a000000000000000000000000000000000000000000000000000000000815260040180806020018281038252600a8152602001807f4e4f542d4445414c45520000000000000000000000000000000000000000000081525060200191505060405180910390fd5b838390508686905014801561344d575060068686905011155b6134bf576040517f08c379a000000000000000000000000000000000000000000000000000000000815260040180806020018281038252600e8152602001807f494e56414c49442d41525241595300000000000000000000000000000000000081525060200191505060405180910390fd5b60005b868690508110156135cd5760008585838181106134db57fe5b9050602002013511613555576040517f08c379a000000000000000000000000000000000000000000000000000000000815260040180806020018281038252600d8152602001807f5a45524f2d5155414e544954590000000000000000000000000000000000000081525060200191505060405180910390fd5b84848281811061356157fe5b905060200201356009600089898581811061357857fe5b9050602002013560058111801561358e57600080fd5b50600581111561359a57fe5b60058111156135a557fe5b81526020019081526020016000206000828254039250508190555080806001019150506134c2565b507ffce8768599d80b0d7d1ab43e61e0757d5e71d052e262da618f4b757c7444102e8686868686866040518080602001806020018060200184810384528a8a82818152602001925060200280828437600081840152601f19601f8201169050808301925050508481038352888882818152602001925060200280828437600081840152601f19601f8201169050808301925050508481038252868682818152602001925080828437600081840152601f19601f820116905080830192505050995050505050505050505060405180910390a1505050505050565b60006136cf836000018373ffffffffffffffffffffffffffffffffffffffff1660001b61445d565b905092915050565b886000811161374e576040517f08c379a00000000000000000000000000000000000000000000000000000000081526004018080602001828103825260078152602001807f5a45524f2d49440000000000000000000000000000000000000000000000000081525060200191505060405180910390fd5b60006008600083815260200190815260200160002060000154146137da576040517f08c379a00000000000000000000000000000000000000000000000000000000081526004018080602001828103825260168152602001807f414c52454144592d53414c4541424c452d434c4f54480000000000000000000081525060200191505060405180910390fd5b6137ee6000801b6137e9613c29565b6126e9565b613860576040517f08c379a000000000000000000000000000000000000000000000000000000000815260040180806020018281038252600a8152602001807f4e4f542d4445414c45520000000000000000000000000000000000000000000081525060200191505060405180910390fd5b600089116138d6576040517f08c379a000000000000000000000000000000000000000000000000000000000815260040180806020018281038252600d8152602001807f494e56414c49442d50524943450000000000000000000000000000000000000081525060200191505060405180910390fd5b6138de614768565b6040518061012001604052808c81526020018b81526020018a600581111561390257fe5b815260200189600581111561391357fe5b815260200188600281111561392457fe5b815260200187878080601f016020809104026020016040519081016040528093929190818152602001838380828437600081840152601f19601f820116905080830192505050505050508152602001600073ffffffffffffffffffffffffffffffffffffffff16815260200142815260200185858080601f016020809104026020016040519081016040528093929190818152602001838380828437600081840152601f19601f820116905080830192505050505050508152509050600c8b908060018154018082558091505060019003906000526020600020016000909190919091505580600860008d8152602001908152602001600020600082015181600001556020820151816001015560408201518160020160006101000a81548160ff02191690836005811115613a5557fe5b021790555060608201518160020160016101000a81548160ff02191690836005811115613a7e57fe5b021790555060808201518160020160026101000a81548160ff02191690836002811115613aa757fe5b021790555060a0820151816003019080519060200190613ac89291906146e8565b5060c08201518160040160006101000a81548173ffffffffffffffffffffffffffffffffffffffff021916908373ffffffffffffffffffffffffffffffffffffffff16021790555060e08201518160050155610100820151816006019080519060200190613b379291906147eb565b509050507f56c549bff2a7d43fc1a03775a186bf3da6f95d2a5cf239061531131e390108db8b8b8b8b60018b8b8b8b604051808a8152602001898152602001886005811115613b8257fe5b8152602001876005811115613b9357fe5b8152602001866002811115613ba457fe5b815260200180602001806020018381038352878782818152602001925080828437600081840152601f19601f8201169050808301925050508381038252858582818152602001925080828437600081840152601f19601f8201169050808301925050509b50505050505050505050505060405180910390a15050505050505050505050565b600033905090565b613c58816000808581526020019081526020016000206000016136a790919063ffffffff16565b15613cc057613c65613c29565b73ffffffffffffffffffffffffffffffffffffffff168173ffffffffffffffffffffffffffffffffffffffff16837f2f8788117e7eff1d82e926ec794901d17c78024a50270940304540a733656f0d60405160405180910390a45b5050565b613ceb816000808581526020019081526020016000206000016144cd90919063ffffffff16565b15613d5357613cf8613c29565b73ffffffffffffffffffffffffffffffffffffffff168173ffffffffffffffffffffffffffffffffffffffff16837ff6391f5c32d9c69d2a47ea670b442974b53935d1edc7fd64eb21e047a839171b60405160405180910390a45b5050565b6000600160008373ffffffffffffffffffffffffffffffffffffffff1673ffffffffffffffffffffffffffffffffffffffff16815260200190815260200160002060006101000a81548160ff0219169083151502179055507f59eeda9684ba893a6f6cc0d5124d08396a1d9317c5590541c3712ac71702932581604051808273ffffffffffffffffffffffffffffffffffffffff16815260200191505060405180910390a150565b6000613e0e83600001836144fd565b60001c905092915050565b6000613e41836000018373ffffffffffffffffffffffffffffffffffffffff1660001b614580565b905092915050565b80613e576000801b826126e9565b15613eca576040517f08c379a000000000000000000000000000000000000000000000000000000000815260040180806020018281038252600e8152602001807f414c52454144592d4445414c455200000000000000000000000000000000000081525060200191505060405180910390fd5b81613ef57f11d2c681bc9c10ed61f9a422c0dbaaddc4054ce58ec726aca73e7e4d31bcd154826126e9565b15613f68576040517f08c379a00000000000000000000000000000000000000000000000000000000081526004018080602001828103825260108152602001807f414c52454144592d52454359434c45520000000000000000000000000000000081525060200191505060405180910390fd5b82600160008273ffffffffffffffffffffffffffffffffffffffff1673ffffffffffffffffffffffffffffffffffffffff16815260200190815260200160002060009054906101000a900460ff1615614029576040517f08c379a00000000000000000000000000000000000000000000000000000000081526004018080602001828103825260108152602001807f414c52454144592d435553544f4d45520000000000000000000000000000000081525060200191505060405180910390fd5b6140537f11d2c681bc9c10ed61f9a422c0dbaaddc4054ce58ec726aca73e7e4d31bcd15485611890565b7f58c9dc8bea7955e04176980b081ee402d8508bc504041f76ffe11702db5610d484604051808273ffffffffffffffffffffffffffffffffffffffff16815260200191505060405180910390a150505050565b806140b46000801b826126e9565b15614127576040517f08c379a000000000000000000000000000000000000000000000000000000000815260040180806020018281038252600e8152602001807f414c52454144592d4445414c455200000000000000000000000000000000000081525060200191505060405180910390fd5b816141527f11d2c681bc9c10ed61f9a422c0dbaaddc4054ce58ec726aca73e7e4d31bcd154826126e9565b156141c5576040517f08c379a00000000000000000000000000000000000000000000000000000000081526004018080602001828103825260108152602001807f414c52454144592d52454359434c45520000000000000000000000000000000081525060200191505060405180910390fd5b82600160008273ffffffffffffffffffffffffffffffffffffffff1673ffffffffffffffffffffffffffffffffffffffff16815260200190815260200160002060009054906101000a900460ff1615614286576040517f08c379a00000000000000000000000000000000000000000000000000000000081526004018080602001828103825260108152602001807f414c52454144592d435553544f4d45520000000000000000000000000000000081525060200191505060405180910390fd5b60018060008673ffffffffffffffffffffffffffffffffffffffff1673ffffffffffffffffffffffffffffffffffffffff16815260200190815260200160002060006101000a81548160ff0219169083151502179055507f155e8619f4d23b96769599cb9af87da3e06a360082869c18578011da9a06e67084604051808273ffffffffffffffffffffffffffffffffffffffff16815260200191505060405180910390a150505050565b600061433e826000016145a3565b9050919050565b806143707f11d2c681bc9c10ed61f9a422c0dbaaddc4054ce58ec726aca73e7e4d31bcd154826126e9565b6143e2576040517f08c379a000000000000000000000000000000000000000000000000000000000815260040180806020018281038252600c8152602001807f4e4f542d52454359434c4552000000000000000000000000000000000000000081525060200191505060405180910390fd5b61440c7f11d2c681bc9c10ed61f9a422c0dbaaddc4054ce58ec726aca73e7e4d31bcd15483612b2b565b7f219dad0e1408532619e76e4d7af7239a896c4ec644eea0ff3355c91491e34a6c82604051808273ffffffffffffffffffffffffffffffffffffffff16815260200191505060405180910390a15050565b60006144698383614580565b6144c25782600001829080600181540180825580915050600190039060005260206000200160009091909190915055826000018054905083600101600084815260200190815260200160002081905550600190506144c7565b600090505b92915050565b60006144f5836000018373ffffffffffffffffffffffffffffffffffffffff1660001b6145b4565b905092915050565b60008183600001805490501161455e576040517f08c379a00000000000000000000000000000000000000000000000000000000081526004018080602001828103825260228152602001806148896022913960400191505060405180910390fd5b82600001828154811061456d57fe5b9060005260206000200154905092915050565b600080836001016000848152602001908152602001600020541415905092915050565b600081600001805490509050919050565b6000808360010160008481526020019081526020016000205490506000811461469057600060018203905060006001866000018054905003905060008660000182815481106145ff57fe5b906000526020600020015490508087600001848154811061461c57fe5b906000526020600020018190555060018301876001016000838152602001908152602001600020819055508660000180548061465457fe5b60019003818190600052602060002001600090559055866001016000878152602001908152602001600020600090556001945050505050614696565b60009150505b92915050565b6040518060c001604052806000815260200160008152602001600081526020016000815260200160608152602001600073ffffffffffffffffffffffffffffffffffffffff1681525090565b828054600181600116156101000203166002900490600052602060002090601f016020900481019282601f1061472957805160ff1916838001178555614757565b82800160010185558215614757579182015b8281111561475657825182559160200191906001019061473b565b5b509050614764919061486b565b5090565b60405180610120016040528060008152602001600081526020016000600581111561478f57fe5b8152602001600060058111156147a157fe5b8152602001600060028111156147b357fe5b815260200160608152602001600073ffffffffffffffffffffffffffffffffffffffff16815260200160008152602001606081525090565b828054600181600116156101000203166002900490600052602060002090601f016020900481019282601f1061482c57805160ff191683800117855561485a565b8280016001018555821561485a579182015b8281111561485957825182559160200191906001019061483e565b5b509050614867919061486b565b5090565b5b8082111561488457600081600090555060010161486c565b509056fe456e756d657261626c655365743a20696e646578206f7574206f6620626f756e6473416363657373436f6e74726f6c3a2073656e646572206d75737420626520616e2061646d696e20746f206772616e74416363657373436f6e74726f6c3a2073656e646572206d75737420626520616e2061646d696e20746f207265766f6b65416363657373436f6e74726f6c3a2063616e206f6e6c792072656e6f756e636520726f6c657320666f722073656c66a26469706673582212209e6f678236c40cd7c64760939ae864fe43301a22917584299f848dcfb10066d464736f6c634300060c0033",
  "immutableReferences": {},
  "source": "// SPDX-License-Identifier: MIT\npragma solidity >=0.5.0 <=0.7.0;\n\nimport \"./ResellingCredit.sol\";\nimport \"./RegenerationCredit.sol\";\nimport \"./ReclothesShopRoleManager.sol\";\nimport \"./ReclothesShopDataTypes.sol\";\n\n/// @title The Reclothes Shop core and public business logic.\n/// @author LINKS Foundation\n/// @notice This contract enables Customers and Reclothes Dealer to transact and cooperate on buy/sell second-hand clothes.\n/// @notice This contract guarantee data consistency reflecting the public output of the confidential transactions between Recyclers and Reclothes Dealer.\ncontract ReclothesShop is ReclothesShopRoleManager {\n    /** Events */\n    \n    event SecondHandBoxSent(uint boxId, string description, CLOTH_TYPE[] clothesTypes, uint[] quantities);\n    event SecondHandBoxEvaluated(uint boxId, uint rscAmount);\n    event SecondHandClothesStored(CLOTH_TYPE clothType, uint quantity);\n    event SaleableClothAdded(uint clothId, uint rscPrice, CLOTH_TYPE clothType, CLOTH_SIZE clothSize, CLOTH_STATUS clothStatus, string description, bytes extClothDataHash);\n    event SaleableClothSold(uint clothId, uint rscPrice);\n    event ConfidentialUpcycledClothOnSale(uint clothId, string confidentialTxHash);\n    event ConfidentialBoxSent(CLOTH_TYPE[] clothesTypes, uint[] quantities, string confidentialTxHash);\n    event ConfidentialTokenTransfer(address sender, address receiver, uint amount, string confidentialTxHash);\n\n    /** Storage */\n    \n    ResellingCredit public resellingCreditInstance; // The instance of the ResellingCredit smart contract.\n    RegenerationCredit public regenerationCreditInstance; // The instance of the RegenerationCredit smart contract.\n    address public reclothesDealer; // The EOA address of the Reclothes Dealer.\n    \n    /// @dev Associate a cloth type to its evaluation price defined in RSC token amount.\n    mapping(CLOTH_TYPE => uint) public clothTypeToEvaluationPrice;\n    \n    /// @dev Associate a unique id to a specific box.\n    mapping(uint => Box) public idToBox;\n\n    /// @dev Associate a unique box id to a list of second-hand clothes (i.e., contained in the box).\n    mapping(uint => SecondHandClothes[]) public boxToSecondHandClothes;\n\n    /// @dev Associate a unique saleable cloth id to its data.\n    mapping(uint => SaleableCloth) public idToSaleableCloth;\n\n    /// @dev Associate a unique cloth type to the related quantity inside the dealer inventory (i.e., aggregated second-hand clothes quantities).\n    mapping(CLOTH_TYPE => uint) public inventory;\n    \n    /// @dev Associate a unique EOA of a Customer to the list of his/her Box ids.\n    mapping(address => uint[]) public customerToBoxesIds;\n\n    /// @dev Associate a unique EOA of a Customer to the list of his/her purchased SaleableCloth ids.\n    mapping(address => uint[]) public customerToPurchasedClothesIds;\n\n    /// @dev List of all SaleableCloth ids.\n    uint[] private _saleableClothesIds;\n\n    /** Modifiers */\n    \n    /// @dev Strict condition which evaluates true only if the given id is greater than zero and if is not associated to a previously created box.\n    modifier isValidBoxId(uint _id) {\n        require(_id > 0, \"ZERO-ID\");\n        require(idToBox[_id].id == 0, \"ALREADY-USED-ID\");\n        _;\n    }\n    \n    /// @dev Strict condition which evaluates true only if the given id is greater than zero and if is not associated to a previously available cloth.\n    modifier isValidClothId(uint _id) {\n        require(_id > 0, \"ZERO-ID\");\n        require(idToSaleableCloth[_id].id == 0, \"ALREADY-SALEABLE-CLOTH\");\n        _;\n    }\n    \n    /// @dev Strict condition which evaluates true only if the given id is associated to a previously created box.\n    modifier isBox(uint _boxId) {\n        require(idToBox[_boxId].id == _boxId, \"NOT-BOX\");\n        _;\n    }\n\n    /** Methods */\n    \n    /// @notice Deploy a new Reclothes Shop associating it to the tokens contracts.\n    /// @param _resellingCreditAddress The address of the ResellingCredit smart contract.\n    /// @param _regenerationCreditAddress The address of the RegenerationCredit smart contract.\n    constructor(\n        address _resellingCreditAddress, \n        address _regenerationCreditAddress\n    ) public {\n        // Setup the role for the Reclothes Dealer.\n        _setupRole(DEFAULT_ADMIN_ROLE, msg.sender);\n        reclothesDealer = msg.sender;\n        \n        // Setup ResellingCredit Token smart contract instance.\n        resellingCreditInstance = ResellingCredit(_resellingCreditAddress);\n\n        // Setup RegenerationCredit Token smart contract instance.\n        regenerationCreditInstance = RegenerationCredit(_regenerationCreditAddress);\n        \n        // Price list for second-hand clothes evaluation in RSC tokens.\n        clothTypeToEvaluationPrice[CLOTH_TYPE.OTHER] = 2;\n        clothTypeToEvaluationPrice[CLOTH_TYPE.TSHIRT] = 4;\n        clothTypeToEvaluationPrice[CLOTH_TYPE.PANT] = 7;\n        clothTypeToEvaluationPrice[CLOTH_TYPE.JACKET] = 15;\n        clothTypeToEvaluationPrice[CLOTH_TYPE.DRESS] = 8;\n        clothTypeToEvaluationPrice[CLOTH_TYPE.SHIRT] = 10;\n    }\n\n    /// @notice Send a box of second-hand clothes from customer to dealer.\n    /// @param _boxId The unique id which identifies the box.\n    /// @param _description A short description of the box.\n    /// @param _clothesTypes A list indicating the types of clothes inside the box.\n    /// @param _quantities A list indicating the quantities of clothes for each type inside the box.\n    function sendBoxForEvaluation(\n        uint _boxId, \n        string calldata _description,\n        CLOTH_TYPE[] calldata _clothesTypes, \n        uint[] calldata _quantities\n    )\n    external \n    onlyCustomer isValidBoxId(_boxId) {\n        // To avoid inconsistency when creating the clothes array (nb. 6 is the number of possible clothes types).\n        require(_clothesTypes.length == _quantities.length && _clothesTypes.length <= 6, \"INVALID-ARRAYS\");\n        \n        // Create a new Box object.\n        Box memory secondHandClothesBox = Box(\n            _boxId, \n            now, // nb. Using \"now\" here is safe because it's not involved in time constraints operations.\n            _clothesTypes.length,\n            0,\n            _description, \n            msg.sender\n        );\n        \n        // Create and bind the SecondHandClothes array to the newly created box.\n        for (uint i = 0; i < _clothesTypes.length; i++) {\n            require(_quantities[i] > 0, \"ZERO-QUANTITY\");\n            \n            // Push the SecondHandClothes.\n            boxToSecondHandClothes[_boxId].push(\n                SecondHandClothes(CLOTH_TYPE(_clothesTypes[i]), _quantities[i])\n            );\n        }\n        \n        // Storage update.\n        idToBox[_boxId] = secondHandClothesBox;\n        customerToBoxesIds[msg.sender].push(_boxId);\n        \n        // Event emit.\n        emit SecondHandBoxSent(_boxId, _description, _clothesTypes, _quantities);\n    }\n\n    /// @notice Evaluate a box of second-hand clothes and remunerate with RSC tokens the box sender.\n    /// @dev This method needs that the dealer gives an amount of RSC tokens allowance to the contract itself.\n    /// @param _boxId The unique id which identifies the box.\n    /// @param _extraAmountRSC An extra amount of RSC tokens ad additional reward for the customer.\n    function evaluateBox(uint _boxId, uint _extraAmountRSC) \n    external \n    isBox(_boxId)\n    onlyReclothesDealer {\n        require(idToBox[_boxId].evaluationInToken == 0, \"ALREADY-EVALUATED\"); // The box must not be already evaluated.\n        \n        // Compute the total amount of RSC tokens to send.\n        uint rscAmount = _extraAmountRSC;\n        SecondHandClothes[] memory secondHandClothes = boxToSecondHandClothes[_boxId];\n        \n        for (uint i = 0; i < secondHandClothes.length; i++) {\n            rscAmount += clothTypeToEvaluationPrice[secondHandClothes[i].clothType] * secondHandClothes[i].quantity;\n        }        \n\n        // Sum second-hand clothes quantities to the dealer inventory.\n        for (uint i = 0; i < secondHandClothes.length; i++) {\n            inventory[CLOTH_TYPE(secondHandClothes[i].clothType)] += secondHandClothes[i].quantity;\n\n            emit SecondHandClothesStored(secondHandClothes[i].clothType, secondHandClothes[i].quantity);\n        }\n        \n        // Storage update.\n        idToBox[_boxId].evaluationInToken = rscAmount;\n\n        // Event emit.\n        emit SecondHandBoxEvaluated(_boxId, rscAmount);\n        \n        // Token transfer from admin to customer.\n        resellingCreditInstance.transferFrom(reclothesDealer, idToBox[_boxId].sender, rscAmount);\n    }\n    \n    /// @notice Put on sale a second-hand cloth.\n    /// @dev This method removes a cloth from the dealer's inventory and creates a new SaleableCloth for the customers.\n    /// @param _clothId The unique id which identifies the saleable cloth.\n    /// @param _rscPrice The price expressed as an amount of RSC.\n    /// @param _clothType The type of the cloth to put on sale.\n    /// @param _clothSize The size of the cloth to put on sale.\n    /// @param _description A short description of the cloth.\n    /// @param _extClothDataHash A hash of the external data related to the cloth.\n    function sellSecondHandCloth(\n        uint _clothId, \n        uint _rscPrice, \n        CLOTH_TYPE _clothType, \n        CLOTH_SIZE _clothSize,\n        string calldata _description,\n        bytes calldata _extClothDataHash\n    ) external {\n        require(inventory[_clothType] > 0, \"INVENTORY-ZERO-QUANTITY\"); // Check if inside the inventory there's an available quantity of that type.\n        \n        // Create a new second-hand cloth to sell.\n        _sellCloth(\n            _clothId, \n            _rscPrice, \n            _clothType, \n            _clothSize, \n            CLOTH_STATUS.SECOND_HAND, \n            _description, \n            _extClothDataHash\n        );\n        \n        // Storage update.\n        inventory[_clothType] -= 1;\n    }\n    \n    /// @notice Put on sale a new upcycled cloth.\n    /// @dev This method requires the tx hash relative to the confidential transaction where the dealer bought the recycler cloth.\n    /// @param _clothId The unique id which identifies the saleable cloth.\n    /// @param _rscPrice The price expressed as an amount of RSC.\n    /// @param _clothType The type of the cloth to put on sale.\n    /// @param _clothSize The size of the cloth to put on sale.\n    /// @param _description A short description of the cloth.\n    /// @param _extClothDataHash A hash of the external data related to the cloth.\n    function sellUpcycledCloth(\n        uint _clothId, \n        uint _rscPrice, \n        CLOTH_TYPE _clothType, \n        CLOTH_SIZE _clothSize,\n        string calldata _description,\n        bytes calldata _extClothDataHash,\n        string calldata _confidentialTxHash\n    ) external {\n        // Create a new upcycled cloth to sell.\n        _sellCloth(\n            _clothId, \n            _rscPrice, \n            _clothType, \n            _clothSize, \n            CLOTH_STATUS.UPCYCLED, \n            _description, \n            _extClothDataHash\n        );\n\n        // Event emit.\n        emit ConfidentialUpcycledClothOnSale(_clothId, _confidentialTxHash);\n    }\n\n    /// @notice Buy a saleable cloth using RSC tokens.\n    /// @param _clothId The unique id which identifies the saleable cloth.\n    function buyCloth(uint _clothId) \n    external \n    onlyCustomer {\n        require(idToSaleableCloth[_clothId].id == _clothId, \"INVALID-CLOTH\");\n        require(idToSaleableCloth[_clothId].buyer == address(0x0), \"ALREADY-SOLD\");\n        \n        // Storage update.\n        idToSaleableCloth[_clothId].buyer = msg.sender;\n        customerToPurchasedClothesIds[msg.sender].push(_clothId);\n        \n        // Event emit.\n        emit SaleableClothSold(_clothId, idToSaleableCloth[_clothId].price);\n        \n        // Token transfer from customer to dealer.\n        resellingCreditInstance.transferFrom(msg.sender, reclothesDealer, idToSaleableCloth[_clothId].price);\n    }\n    \n    /// @notice Decrease the inventory stock quantity for the clothes types involved in a confidential box.\n    /// @param _clothesTypes The type of the cloth to put on sale.\n    /// @param _quantities The list of clothes types quantities.\n    /// @param _confidentialTxHash The public tx hash generated for the confidential tx.\n    function decreaseStockForConfidentialBox(\n        CLOTH_TYPE[] calldata _clothesTypes, \n        uint[] calldata _quantities, \n        string calldata _confidentialTxHash\n    ) \n    external\n    onlyReclothesDealer {\n        // To avoid inconsistency when creating the old clothing array (nb. 6 is the number of possible cloth types).\n        require(_clothesTypes.length == _quantities.length && _clothesTypes.length <= 6, \"INVALID-ARRAYS\");\n        \n        // Decrease inventory stock quantity.\n        for (uint i = 0; i < _clothesTypes.length; i++) {\n            require(_quantities[i] > 0, \"ZERO-QUANTITY\");\n            \n            inventory[_clothesTypes[i]] -= _quantities[i];            \n        }\n        \n        // Event emit.\n        emit ConfidentialBoxSent(_clothesTypes, _quantities, _confidentialTxHash);\n    }\n    \n    /// @notice Transfer a RSC token amount from dealer to recycler for an upcycled cloth purchase involved in a confidential tx.\n    /// @param _recycler The EOA of the recycler.\n    /// @param _rscAmount The RSC tokens amount to transfer.\n    /// @param _confidentialTxHash The public tx hash generated for the confidential tx.\n    function transferRSCForConfidentialTx(address _recycler, uint _rscAmount, string calldata _confidentialTxHash)\n    external\n    isRecycler(_recycler)\n    onlyReclothesDealer {\n        require(_rscAmount > 0, \"ZERO-AMOUNT\");\n\n        // Event emit.\n        emit ConfidentialTokenTransfer(msg.sender, _recycler, _rscAmount, _confidentialTxHash);\n\n        // Token transfer from dealer to recycler.\n        resellingCreditInstance.transferFrom(msg.sender, _recycler, _rscAmount);\n    }\n    \n    /// @notice Transfer a RGC amount from recycler to dealer related to a confidential box evaluation tx.\n    /// @param _rgcAmount The RGC tokens amount to transfer.\n    /// @param _confidentialTxHash The public tx hash generated for the confidential tx.\n    function transferRGCForConfidentialTx(uint _rgcAmount, string calldata _confidentialTxHash)\n    external\n    onlyRecycler {\n        require(_rgcAmount > 0, \"ZERO-AMOUNT\");\n        \n        // Event emit.\n        emit ConfidentialTokenTransfer(msg.sender, reclothesDealer, _rgcAmount, _confidentialTxHash);\n        \n        // Token transfer from recycler to dealer.\n        regenerationCreditInstance.transferFrom(msg.sender, reclothesDealer, _rgcAmount);\n    }\n\n    /// @notice Put on sale a new cloth.\n    /// @param _clothId The unique id which identifies the saleable cloth.\n    /// @param _rscPrice The price expressed as an amount of RSC.\n    /// @param _clothType The type of the cloth to put on sale.\n    /// @param _clothSize The size of the cloth to put on sale.\n    /// @param _clothStatus The status of the cloth to put on sale.\n    /// @param _description A short description of the cloth.\n    /// @param _extClothDataHash A hash of the external data related to the cloth.\n    function _sellCloth(\n        uint _clothId, \n        uint _rscPrice, \n        CLOTH_TYPE _clothType, \n        CLOTH_SIZE _clothSize,\n        CLOTH_STATUS _clothStatus,\n        string calldata _description,\n        bytes calldata _extClothDataHash\n    ) \n    internal\n    isValidClothId(_clothId)\n    onlyReclothesDealer {\n        require(_rscPrice > 0, \"INVALID-PRICE\"); // Check for zero prices.\n\n        // Create a new SaleableCloth.\n        SaleableCloth memory saleableCloth = SaleableCloth(\n            _clothId,\n            _rscPrice,\n            CLOTH_TYPE(_clothType), \n            _clothSize, \n            _clothStatus,\n            _description, \n            address(0x0),\n            now, // nb. Using \"now\" here is safe because it's not involved in time constraints operations.\n            _extClothDataHash\n        );\n\n        // Storage update.\n        _saleableClothesIds.push(_clothId);\n        idToSaleableCloth[_clothId] = saleableCloth;\n\n        // Event emit.\n        emit SaleableClothAdded(_clothId, _rscPrice, _clothType, _clothSize, CLOTH_STATUS.UPCYCLED, _description, _extClothDataHash);\n    }\n    \n    /** @notice Return every SaleableCloth id.\n      * @return List of the every SaleableCloth id.\n      */\n    function getAllSaleableClothesIds() external view returns(uint[] memory){\n        return _saleableClothesIds;\n    }\n    \n    /** @notice Return every Box id sent from the customer.\n      * @return List of the every Box id.\n      */\n    function getAllCustomerBoxesIds(address _customer) external view returns(uint[] memory){\n        return customerToBoxesIds[_customer];\n    }\n    \n    /** @notice Return every SaleableCloth id purchased by the customer.\n      * @return List of the every purchased SaleableCloth id.\n      */\n    function getAllPurchasedClothesIds(address _customer) external view returns(uint[] memory){\n        return customerToPurchasedClothesIds[_customer];\n    }\n}\n",
  "sourcePath": "/Users/giacomo/Documents/Work/LINKS/Coding/PoC/ReClothes-Backend/contracts/ReclothesShop.sol",
  "compiler": {
    "name": "solc",
    "version": "0.6.12+commit.27d51765.Emscripten.clang"
  },
  "schemaVersion": "3.3.2",
  "updatedAt": "2020-12-11T16:31:16.668Z",
  "devdoc": {
    "author": "LINKS Foundation",
    "kind": "dev",
    "methods": {
      "buyCloth(uint256)": {
        "params": {
          "_clothId": "The unique id which identifies the saleable cloth."
        }
      },
      "constructor": {
        "params": {
          "_regenerationCreditAddress": "The address of the RegenerationCredit smart contract.",
          "_resellingCreditAddress": "The address of the ResellingCredit smart contract."
        }
      },
      "decreaseStockForConfidentialBox(uint8[],uint256[],string)": {
        "params": {
          "_clothesTypes": "The type of the cloth to put on sale.",
          "_confidentialTxHash": "The public tx hash generated for the confidential tx.",
          "_quantities": "The list of clothes types quantities."
        }
      },
      "evaluateBox(uint256,uint256)": {
        "details": "This method needs that the dealer gives an amount of RSC tokens allowance to the contract itself.",
        "params": {
          "_boxId": "The unique id which identifies the box.",
          "_extraAmountRSC": "An extra amount of RSC tokens ad additional reward for the customer."
        }
      },
      "getAllCustomerBoxesIds(address)": {
        "returns": {
          "_0": "List of the every Box id."
        }
      },
      "getAllPurchasedClothesIds(address)": {
        "returns": {
          "_0": "List of the every purchased SaleableCloth id."
        }
      },
      "getAllSaleableClothesIds()": {
        "returns": {
          "_0": "List of the every SaleableCloth id."
        }
      },
      "getRoleAdmin(bytes32)": {
        "details": "Returns the admin role that controls `role`. See {grantRole} and {revokeRole}. To change a role's admin, use {_setRoleAdmin}."
      },
      "getRoleMember(bytes32,uint256)": {
        "details": "Returns one of the accounts that have `role`. `index` must be a value between 0 and {getRoleMemberCount}, non-inclusive. Role bearers are not sorted in any particular way, and their ordering may change at any point. WARNING: When using {getRoleMember} and {getRoleMemberCount}, make sure you perform all queries on the same block. See the following https://forum.openzeppelin.com/t/iterating-over-elements-on-enumerableset-in-openzeppelin-contracts/2296[forum post] for more information."
      },
      "getRoleMemberCount(bytes32)": {
        "details": "Returns the number of accounts that have `role`. Can be used together with {getRoleMember} to enumerate all bearers of a role."
      },
      "grantRecyclerRole(address)": {
        "params": {
          "_userAccount": "The EOA of the user that must be added as recycler."
        }
      },
      "grantRole(bytes32,address)": {
        "details": "Grants `role` to `account`. If `account` had not been already granted `role`, emits a {RoleGranted} event. Requirements: - the caller must have ``role``'s admin role."
      },
      "hasRole(bytes32,address)": {
        "details": "Returns `true` if `account` has been granted `role`."
      },
      "renounceRole(bytes32,address)": {
        "details": "Revokes `role` from the calling account. Roles are often managed via {grantRole} and {revokeRole}: this function's purpose is to provide a mechanism for accounts to lose their privileges if they are compromised (such as when a trusted device is misplaced). If the calling account had been granted `role`, emits a {RoleRevoked} event. Requirements: - the caller must be `account`."
      },
      "revokeRecyclerRole(address)": {
        "params": {
          "_recycler": "The EOA of the recycler that must be removed."
        }
      },
      "revokeRole(bytes32,address)": {
        "details": "Revokes `role` from `account`. If `account` had been granted `role`, emits a {RoleRevoked} event. Requirements: - the caller must have ``role``'s admin role."
      },
      "sellSecondHandCloth(uint256,uint256,uint8,uint8,string,bytes)": {
        "details": "This method removes a cloth from the dealer's inventory and creates a new SaleableCloth for the customers.",
        "params": {
          "_clothId": "The unique id which identifies the saleable cloth.",
          "_clothSize": "The size of the cloth to put on sale.",
          "_clothType": "The type of the cloth to put on sale.",
          "_description": "A short description of the cloth.",
          "_extClothDataHash": "A hash of the external data related to the cloth.",
          "_rscPrice": "The price expressed as an amount of RSC."
        }
      },
      "sellUpcycledCloth(uint256,uint256,uint8,uint8,string,bytes,string)": {
        "details": "This method requires the tx hash relative to the confidential transaction where the dealer bought the recycler cloth.",
        "params": {
          "_clothId": "The unique id which identifies the saleable cloth.",
          "_clothSize": "The size of the cloth to put on sale.",
          "_clothType": "The type of the cloth to put on sale.",
          "_description": "A short description of the cloth.",
          "_extClothDataHash": "A hash of the external data related to the cloth.",
          "_rscPrice": "The price expressed as an amount of RSC."
        }
      },
      "sendBoxForEvaluation(uint256,string,uint8[],uint256[])": {
        "params": {
          "_boxId": "The unique id which identifies the box.",
          "_clothesTypes": "A list indicating the types of clothes inside the box.",
          "_description": "A short description of the box.",
          "_quantities": "A list indicating the quantities of clothes for each type inside the box."
        }
      },
      "transferRGCForConfidentialTx(uint256,string)": {
        "params": {
          "_confidentialTxHash": "The public tx hash generated for the confidential tx.",
          "_rgcAmount": "The RGC tokens amount to transfer."
        }
      },
      "transferRSCForConfidentialTx(address,uint256,string)": {
        "params": {
          "_confidentialTxHash": "The public tx hash generated for the confidential tx.",
          "_recycler": "The EOA of the recycler.",
          "_rscAmount": "The RSC tokens amount to transfer."
        }
      }
    },
    "stateVariables": {
      "_saleableClothesIds": {
        "details": "List of all SaleableCloth ids."
      },
      "boxToSecondHandClothes": {
        "details": "Associate a unique box id to a list of second-hand clothes (i.e., contained in the box)."
      },
      "clothTypeToEvaluationPrice": {
        "details": "Associate a cloth type to its evaluation price defined in RSC token amount."
      },
      "customerToBoxesIds": {
        "details": "Associate a unique EOA of a Customer to the list of his/her Box ids."
      },
      "customerToPurchasedClothesIds": {
        "details": "Associate a unique EOA of a Customer to the list of his/her purchased SaleableCloth ids."
      },
      "idToBox": {
        "details": "Associate a unique id to a specific box."
      },
      "idToSaleableCloth": {
        "details": "Associate a unique saleable cloth id to its data."
      },
      "inventory": {
        "details": "Associate a unique cloth type to the related quantity inside the dealer inventory (i.e., aggregated second-hand clothes quantities)."
      }
    },
    "title": "The Reclothes Shop core and public business logic.",
    "version": 1
  },
  "userdoc": {
    "events": {
      "RecyclerRoleGranted(address)": {
        "notice": "Events "
      },
      "SecondHandBoxSent(uint256,string,uint8[],uint256[])": {
        "notice": "Events "
      }
    },
    "kind": "user",
    "methods": {
      "RECYCLER_ROLE()": {
        "notice": "Storage "
      },
      "buyCloth(uint256)": {
        "notice": "Buy a saleable cloth using RSC tokens."
      },
      "constructor": "Deploy a new Reclothes Shop associating it to the tokens contracts.",
      "decreaseStockForConfidentialBox(uint8[],uint256[],string)": {
        "notice": "Decrease the inventory stock quantity for the clothes types involved in a confidential box."
      },
      "evaluateBox(uint256,uint256)": {
        "notice": "Evaluate a box of second-hand clothes and remunerate with RSC tokens the box sender."
      },
      "getAllCustomerBoxesIds(address)": {
        "notice": "Return every Box id sent from the customer."
      },
      "getAllPurchasedClothesIds(address)": {
        "notice": "Return every SaleableCloth id purchased by the customer."
      },
      "getAllSaleableClothesIds()": {
        "notice": "Return every SaleableCloth id."
      },
      "grantRecyclerRole(address)": {
        "notice": "Register a new Recycler in to the system."
      },
      "registerAsCustomer()": {
        "notice": "Assign the Customer role to the sender"
      },
      "renounceToCustomerRole()": {
        "notice": "Removes the Customer role from the sender."
      },
      "resellingCreditInstance()": {
        "notice": "Storage "
      },
      "revokeRecyclerRole(address)": {
        "notice": "Remove a Recycler user from the system."
      },
      "sellSecondHandCloth(uint256,uint256,uint8,uint8,string,bytes)": {
        "notice": "Put on sale a second-hand cloth."
      },
      "sellUpcycledCloth(uint256,uint256,uint8,uint8,string,bytes,string)": {
        "notice": "Put on sale a new upcycled cloth."
      },
      "sendBoxForEvaluation(uint256,string,uint8[],uint256[])": {
        "notice": "Send a box of second-hand clothes from customer to dealer."
      },
      "transferRGCForConfidentialTx(uint256,string)": {
        "notice": "Transfer a RGC amount from recycler to dealer related to a confidential box evaluation tx."
      },
      "transferRSCForConfidentialTx(address,uint256,string)": {
        "notice": "Transfer a RSC token amount from dealer to recycler for an upcycled cloth purchase involved in a confidential tx."
      }
    },
    "notice": "This contract enables Customers and Reclothes Dealer to transact and cooperate on buy/sell second-hand clothes.This contract guarantee data consistency reflecting the public output of the confidential transactions between Recyclers and Reclothes Dealer.",
    "version": 1
  }
}